{
  "contractName": "DirectHomeCrowdsale",
  "abi": [
    {
      "constant": true,
      "inputs": [],
      "name": "refundVault",
      "outputs": [
        {
          "name": "",
          "type": "address"
        }
      ],
      "payable": false,
      "stateMutability": "view",
      "type": "function"
    },
    {
      "constant": false,
      "inputs": [
        {
          "name": "_multisigVault",
          "type": "address"
        }
      ],
      "name": "setMultisigVault",
      "outputs": [],
      "payable": false,
      "stateMutability": "nonpayable",
      "type": "function"
    },
    {
      "constant": false,
      "inputs": [
        {
          "name": "token",
          "type": "address"
        }
      ],
      "name": "reclaimToken",
      "outputs": [],
      "payable": false,
      "stateMutability": "nonpayable",
      "type": "function"
    },
    {
      "constant": true,
      "inputs": [],
      "name": "endTime",
      "outputs": [
        {
          "name": "",
          "type": "uint256"
        }
      ],
      "payable": false,
      "stateMutability": "view",
      "type": "function"
    },
    {
      "constant": true,
      "inputs": [],
      "name": "CROWDSALE_START_TIME",
      "outputs": [
        {
          "name": "",
          "type": "uint256"
        }
      ],
      "payable": false,
      "stateMutability": "view",
      "type": "function"
    },
    {
      "constant": true,
      "inputs": [],
      "name": "HARDCAP",
      "outputs": [
        {
          "name": "",
          "type": "uint256"
        }
      ],
      "payable": false,
      "stateMutability": "view",
      "type": "function"
    },
    {
      "constant": false,
      "inputs": [
        {
          "name": "_account",
          "type": "address"
        }
      ],
      "name": "updateWhitelist",
      "outputs": [
        {
          "name": "",
          "type": "bool"
        }
      ],
      "payable": false,
      "stateMutability": "nonpayable",
      "type": "function"
    },
    {
      "constant": false,
      "inputs": [
        {
          "name": "_startTime",
          "type": "uint256"
        }
      ],
      "name": "setStartTime",
      "outputs": [],
      "payable": false,
      "stateMutability": "nonpayable",
      "type": "function"
    },
    {
      "constant": false,
      "inputs": [],
      "name": "unpause",
      "outputs": [],
      "payable": false,
      "stateMutability": "nonpayable",
      "type": "function"
    },
    {
      "constant": true,
      "inputs": [],
      "name": "weiRaised",
      "outputs": [
        {
          "name": "",
          "type": "uint256"
        }
      ],
      "payable": false,
      "stateMutability": "view",
      "type": "function"
    },
    {
      "constant": true,
      "inputs": [],
      "name": "CROWDSALE_END_TIME",
      "outputs": [
        {
          "name": "",
          "type": "uint256"
        }
      ],
      "payable": false,
      "stateMutability": "view",
      "type": "function"
    },
    {
      "constant": false,
      "inputs": [],
      "name": "finalize",
      "outputs": [],
      "payable": false,
      "stateMutability": "nonpayable",
      "type": "function"
    },
    {
      "constant": false,
      "inputs": [
        {
          "name": "recipient",
          "type": "address"
        },
        {
          "name": "tokens",
          "type": "uint256"
        }
      ],
      "name": "authorizedCreateTokens",
      "outputs": [],
      "payable": false,
      "stateMutability": "nonpayable",
      "type": "function"
    },
    {
      "constant": true,
      "inputs": [],
      "name": "CONTRIBUTION_MAX_NO_WHITELIST",
      "outputs": [
        {
          "name": "",
          "type": "uint256"
        }
      ],
      "payable": false,
      "stateMutability": "view",
      "type": "function"
    },
    {
      "constant": false,
      "inputs": [
        {
          "name": "_weiRaisedFromOthers",
          "type": "uint256"
        }
      ],
      "name": "setWeiRaisedFromOthers",
      "outputs": [],
      "payable": false,
      "stateMutability": "nonpayable",
      "type": "function"
    },
    {
      "constant": true,
      "inputs": [],
      "name": "paused",
      "outputs": [
        {
          "name": "",
          "type": "bool"
        }
      ],
      "payable": false,
      "stateMutability": "view",
      "type": "function"
    },
    {
      "constant": true,
      "inputs": [],
      "name": "weiRaisedFromOthers",
      "outputs": [
        {
          "name": "",
          "type": "uint256"
        }
      ],
      "payable": false,
      "stateMutability": "view",
      "type": "function"
    },
    {
      "constant": true,
      "inputs": [],
      "name": "SOFTCAP",
      "outputs": [
        {
          "name": "",
          "type": "uint256"
        }
      ],
      "payable": false,
      "stateMutability": "view",
      "type": "function"
    },
    {
      "constant": true,
      "inputs": [],
      "name": "TOKENS_PER_ETHER",
      "outputs": [
        {
          "name": "",
          "type": "uint256"
        }
      ],
      "payable": false,
      "stateMutability": "view",
      "type": "function"
    },
    {
      "constant": true,
      "inputs": [],
      "name": "hasSaleEnded",
      "outputs": [
        {
          "name": "",
          "type": "bool"
        }
      ],
      "payable": false,
      "stateMutability": "view",
      "type": "function"
    },
    {
      "constant": true,
      "inputs": [],
      "name": "softcapReached",
      "outputs": [
        {
          "name": "",
          "type": "bool"
        }
      ],
      "payable": false,
      "stateMutability": "view",
      "type": "function"
    },
    {
      "constant": false,
      "inputs": [
        {
          "name": "vesting",
          "type": "address"
        },
        {
          "name": "recipient",
          "type": "address"
        },
        {
          "name": "tokens",
          "type": "uint256"
        }
      ],
      "name": "authorizedCreateTokensVesting",
      "outputs": [
        {
          "name": "",
          "type": "address"
        }
      ],
      "payable": false,
      "stateMutability": "nonpayable",
      "type": "function"
    },
    {
      "constant": true,
      "inputs": [],
      "name": "startTime",
      "outputs": [
        {
          "name": "",
          "type": "uint256"
        }
      ],
      "payable": false,
      "stateMutability": "view",
      "type": "function"
    },
    {
      "constant": false,
      "inputs": [],
      "name": "pause",
      "outputs": [],
      "payable": false,
      "stateMutability": "nonpayable",
      "type": "function"
    },
    {
      "constant": true,
      "inputs": [],
      "name": "isFinalized",
      "outputs": [
        {
          "name": "",
          "type": "bool"
        }
      ],
      "payable": false,
      "stateMutability": "view",
      "type": "function"
    },
    {
      "constant": true,
      "inputs": [],
      "name": "owner",
      "outputs": [
        {
          "name": "",
          "type": "address"
        }
      ],
      "payable": false,
      "stateMutability": "view",
      "type": "function"
    },
    {
      "constant": false,
      "inputs": [
        {
          "name": "_tokensPerEther",
          "type": "uint256"
        }
      ],
      "name": "setTokensPerEther",
      "outputs": [],
      "payable": false,
      "stateMutability": "nonpayable",
      "type": "function"
    },
    {
      "constant": true,
      "inputs": [
        {
          "name": "",
          "type": "address"
        }
      ],
      "name": "whitelist",
      "outputs": [
        {
          "name": "",
          "type": "uint8"
        }
      ],
      "payable": false,
      "stateMutability": "view",
      "type": "function"
    },
    {
      "constant": true,
      "inputs": [],
      "name": "hardcap",
      "outputs": [
        {
          "name": "",
          "type": "uint256"
        }
      ],
      "payable": false,
      "stateMutability": "view",
      "type": "function"
    },
    {
      "constant": true,
      "inputs": [],
      "name": "pausedTime",
      "outputs": [
        {
          "name": "",
          "type": "uint256"
        }
      ],
      "payable": false,
      "stateMutability": "view",
      "type": "function"
    },
    {
      "constant": false,
      "inputs": [],
      "name": "claimRefund",
      "outputs": [],
      "payable": false,
      "stateMutability": "nonpayable",
      "type": "function"
    },
    {
      "constant": true,
      "inputs": [],
      "name": "CONTRIBUTION_MIN",
      "outputs": [
        {
          "name": "",
          "type": "uint256"
        }
      ],
      "payable": false,
      "stateMutability": "view",
      "type": "function"
    },
    {
      "constant": true,
      "inputs": [
        {
          "name": "from_",
          "type": "address"
        },
        {
          "name": "value_",
          "type": "uint256"
        },
        {
          "name": "data_",
          "type": "bytes"
        }
      ],
      "name": "tokenFallback",
      "outputs": [],
      "payable": false,
      "stateMutability": "pure",
      "type": "function"
    },
    {
      "constant": true,
      "inputs": [],
      "name": "multisigVault",
      "outputs": [
        {
          "name": "",
          "type": "address"
        }
      ],
      "payable": false,
      "stateMutability": "view",
      "type": "function"
    },
    {
      "constant": false,
      "inputs": [
        {
          "name": "_hardcap",
          "type": "uint256"
        }
      ],
      "name": "setHardCap",
      "outputs": [],
      "payable": false,
      "stateMutability": "nonpayable",
      "type": "function"
    },
    {
      "constant": false,
      "inputs": [
        {
          "name": "beneficiary",
          "type": "address"
        }
      ],
      "name": "buyTokens",
      "outputs": [],
      "payable": true,
      "stateMutability": "payable",
      "type": "function"
    },
    {
      "constant": false,
      "inputs": [
        {
          "name": "newOwner",
          "type": "address"
        }
      ],
      "name": "transferOwnership",
      "outputs": [],
      "payable": false,
      "stateMutability": "nonpayable",
      "type": "function"
    },
    {
      "constant": true,
      "inputs": [],
      "name": "tokensPerEther",
      "outputs": [
        {
          "name": "",
          "type": "uint256"
        }
      ],
      "payable": false,
      "stateMutability": "view",
      "type": "function"
    },
    {
      "constant": true,
      "inputs": [],
      "name": "softcap",
      "outputs": [
        {
          "name": "",
          "type": "uint256"
        }
      ],
      "payable": false,
      "stateMutability": "view",
      "type": "function"
    },
    {
      "constant": true,
      "inputs": [],
      "name": "token",
      "outputs": [
        {
          "name": "",
          "type": "address"
        }
      ],
      "payable": false,
      "stateMutability": "view",
      "type": "function"
    },
    {
      "inputs": [
        {
          "name": "_token",
          "type": "address"
        }
      ],
      "payable": false,
      "stateMutability": "nonpayable",
      "type": "constructor"
    },
    {
      "payable": true,
      "stateMutability": "payable",
      "type": "fallback"
    },
    {
      "anonymous": false,
      "inputs": [
        {
          "indexed": true,
          "name": "purchaser",
          "type": "address"
        },
        {
          "indexed": true,
          "name": "beneficiary",
          "type": "address"
        },
        {
          "indexed": false,
          "name": "weiAmount",
          "type": "uint256"
        },
        {
          "indexed": false,
          "name": "tokens",
          "type": "uint256"
        }
      ],
      "name": "TokenPurchase",
      "type": "event"
    },
    {
      "anonymous": false,
      "inputs": [
        {
          "indexed": false,
          "name": "beneficiary",
          "type": "address"
        },
        {
          "indexed": false,
          "name": "tokens",
          "type": "uint256"
        }
      ],
      "name": "AuthorizedCreate",
      "type": "event"
    },
    {
      "anonymous": false,
      "inputs": [
        {
          "indexed": false,
          "name": "beneficiary",
          "type": "address"
        },
        {
          "indexed": false,
          "name": "tokens",
          "type": "uint256"
        },
        {
          "indexed": false,
          "name": "vesting",
          "type": "address"
        }
      ],
      "name": "AuthorizedCreateWithVesting",
      "type": "event"
    },
    {
      "anonymous": false,
      "inputs": [
        {
          "indexed": true,
          "name": "beneficiary",
          "type": "address"
        }
      ],
      "name": "WhitelistUpdated",
      "type": "event"
    },
    {
      "anonymous": false,
      "inputs": [],
      "name": "Finalized",
      "type": "event"
    },
    {
      "anonymous": false,
      "inputs": [],
      "name": "Pause",
      "type": "event"
    },
    {
      "anonymous": false,
      "inputs": [],
      "name": "Unpause",
      "type": "event"
    },
    {
      "anonymous": false,
      "inputs": [
        {
          "indexed": true,
          "name": "previousOwner",
          "type": "address"
        },
        {
          "indexed": true,
          "name": "newOwner",
          "type": "address"
        }
      ],
      "name": "OwnershipTransferred",
      "type": "event"
    }
  ],
  "bytecode": "0x606060405260008060146101000a81548160ff021916908315150217905550635a725880600255635b38197f600355610036610177565b604051809103906000f080151561004c57600080fd5b600660006101000a81548173ffffffffffffffffffffffffffffffffffffffff021916908373ffffffffffffffffffffffffffffffffffffffff1602179055506103e86007556000600a60006101000a81548160ff021916908315150217905550690a968163f0a57b400000600b5568cb49b44ba602d80000600c5534156100d357600080fd5b604051602080620030a183398101604052808051906020019091905050336000806101000a81548173ffffffffffffffffffffffffffffffffffffffff021916908373ffffffffffffffffffffffffffffffffffffffff16021790555080600160006101000a81548173ffffffffffffffffffffffffffffffffffffffff021916908373ffffffffffffffffffffffffffffffffffffffff16021790555050610188565b604051610af780620025aa83390190565b61241280620001986000396000f3006060604052600436106101ee576000357c0100000000000000000000000000000000000000000000000000000000900463ffffffff16806311777af71461021557806314f800831461026a57806317ffc320146102a35780633197cbb6146102dc578063389c6b8e146103055780633bd748801461032e5780633d0f963e146103575780633e0a322d146103a85780633f4ba83a146103cb5780634042b66f146103e057806344f6bc11146104095780634bb278f314610432578063528d4156146104475780635655e37b146104895780635bf04493146104b25780635c975abb146104d557806360bbbee914610502578063657123391461052b5780636b4a6ded146105545780636bacc0fa1461057d5780636eb21929146105aa578063735bdd30146105d757806378e97925146106785780638456cb59146106a15780638d4e4083146106b65780638da5cb5b146106e3578063904bd6d0146107385780639b19251a1461075b578063b071cbe6146107ae578063b2cca39d146107d7578063b5545a3c14610800578063ba9bb82714610815578063c0ee0b8a1461083e578063d0c03f3514610894578063d18d944b146108e9578063ec8ac4d81461090c578063f2fde38b1461093a578063f856d60514610973578063f89be5931461099c578063fc0c546a146109c5575b600060149054906101000a900460ff1615151561020a57600080fd5b61021333610a1a565b005b341561022057600080fd5b610228610d40565b604051808273ffffffffffffffffffffffffffffffffffffffff1673ffffffffffffffffffffffffffffffffffffffff16815260200191505060405180910390f35b341561027557600080fd5b6102a1600480803573ffffffffffffffffffffffffffffffffffffffff16906020019091905050610d66565b005b34156102ae57600080fd5b6102da600480803573ffffffffffffffffffffffffffffffffffffffff16906020019091905050610f0c565b005b34156102e757600080fd5b6102ef611079565b6040518082815260200191505060405180910390f35b341561031057600080fd5b61031861107f565b6040518082815260200191505060405180910390f35b341561033957600080fd5b610341611087565b6040518082815260200191505060405180910390f35b341561036257600080fd5b61038e600480803573ffffffffffffffffffffffffffffffffffffffff16906020019091905050611095565b604051808215151515815260200191505060405180910390f35b34156103b357600080fd5b6103c960048080359060200190919050506111d3565b005b34156103d657600080fd5b6103de611238565b005b34156103eb57600080fd5b6103f36112f6565b6040518082815260200191505060405180910390f35b341561041457600080fd5b61041c6112fc565b6040518082815260200191505060405180910390f35b341561043d57600080fd5b610445611304565b005b341561045257600080fd5b610487600480803573ffffffffffffffffffffffffffffffffffffffff169060200190919080359060200190919050506113df565b005b341561049457600080fd5b61049c611592565b6040518082815260200191505060405180910390f35b34156104bd57600080fd5b6104d3600480803590602001909190505061159f565b005b34156104e057600080fd5b6104e8611604565b604051808215151515815260200191505060405180910390f35b341561050d57600080fd5b610515611617565b6040518082815260200191505060405180910390f35b341561053657600080fd5b61053e61161d565b6040518082815260200191505060405180910390f35b341561055f57600080fd5b61056761162a565b6040518082815260200191505060405180910390f35b341561058857600080fd5b610590611630565b604051808215151515815260200191505060405180910390f35b34156105b557600080fd5b6105bd611664565b604051808215151515815260200191505060405180910390f35b34156105e257600080fd5b610636600480803573ffffffffffffffffffffffffffffffffffffffff1690602001909190803573ffffffffffffffffffffffffffffffffffffffff16906020019091908035906020019091905050611687565b604051808273ffffffffffffffffffffffffffffffffffffffff1673ffffffffffffffffffffffffffffffffffffffff16815260200191505060405180910390f35b341561068357600080fd5b61068b611876565b6040518082815260200191505060405180910390f35b34156106ac57600080fd5b6106b461187c565b005b34156106c157600080fd5b6106c961193c565b604051808215151515815260200191505060405180910390f35b34156106ee57600080fd5b6106f661194f565b604051808273ffffffffffffffffffffffffffffffffffffffff1673ffffffffffffffffffffffffffffffffffffffff16815260200191505060405180910390f35b341561074357600080fd5b6107596004808035906020019091905050611974565b005b341561076657600080fd5b610792600480803573ffffffffffffffffffffffffffffffffffffffff169060200190919050506119d9565b604051808260ff1660ff16815260200191505060405180910390f35b34156107b957600080fd5b6107c16119f9565b6040518082815260200191505060405180910390f35b34156107e257600080fd5b6107ea6119ff565b6040518082815260200191505060405180910390f35b341561080b57600080fd5b610813611a05565b005b341561082057600080fd5b610828611b06565b6040518082815260200191505060405180910390f35b341561084957600080fd5b610892600480803573ffffffffffffffffffffffffffffffffffffffff169060200190919080359060200190919080359060200190820180359060200191909192905050611b12565b005b341561089f57600080fd5b6108a7611b17565b604051808273ffffffffffffffffffffffffffffffffffffffff1673ffffffffffffffffffffffffffffffffffffffff16815260200191505060405180910390f35b34156108f457600080fd5b61090a6004808035906020019091905050611b3d565b005b610938600480803573ffffffffffffffffffffffffffffffffffffffff16906020019091905050610a1a565b005b341561094557600080fd5b610971600480803573ffffffffffffffffffffffffffffffffffffffff16906020019091905050611ba2565b005b341561097e57600080fd5b610986611cf7565b6040518082815260200191505060405180910390f35b34156109a757600080fd5b6109af611cfd565b6040518082815260200191505060405180910390f35b34156109d057600080fd5b6109d8611d03565b604051808273ffffffffffffffffffffffffffffffffffffffff1673ffffffffffffffffffffffffffffffffffffffff16815260200191505060405180910390f35b600080600060149054906101000a900460ff16151515610a3957600080fd5b600073ffffffffffffffffffffffffffffffffffffffff16600560009054906101000a900473ffffffffffffffffffffffffffffffffffffffff1673ffffffffffffffffffffffffffffffffffffffff1614151515610a9757600080fd5b600073ffffffffffffffffffffffffffffffffffffffff168373ffffffffffffffffffffffffffffffffffffffff1614151515610ad357600080fd5b6002544210158015610ae757506003544211155b1515610af257600080fd5b34915067016345785d8a00008210151515610b0c57600080fd5b68015af1d78b58c4000082111580610b7357506000600d60008573ffffffffffffffffffffffffffffffffffffffff1673ffffffffffffffffffffffffffffffffffffffff16815260200190815260200160002060009054906101000a900460ff1660ff16115b1515610b7e57600080fd5b600b54610baa600954610b9c60085486611d2990919063ffffffff16565b611d2990919063ffffffff16565b11151515610bb757600080fd5b610bc082611d47565b9050610bd782600854611d2990919063ffffffff16565b600881905550600160009054906101000a900473ffffffffffffffffffffffffffffffffffffffff1673ffffffffffffffffffffffffffffffffffffffff166340c10f1984836000604051602001526040518363ffffffff167c0100000000000000000000000000000000000000000000000000000000028152600401808373ffffffffffffffffffffffffffffffffffffffff1673ffffffffffffffffffffffffffffffffffffffff16815260200182815260200192505050602060405180830381600087803b1515610caa57600080fd5b6102c65a03f11515610cbb57600080fd5b50505060405180519050508273ffffffffffffffffffffffffffffffffffffffff163373ffffffffffffffffffffffffffffffffffffffff167f623b3804fa71d67900d064613da8f94b9617215ee90799290593e1745087ad188484604051808381526020018281526020019250505060405180910390a3610d3b611d65565b505050565b600660009054906101000a900473ffffffffffffffffffffffffffffffffffffffff1681565b6000809054906101000a900473ffffffffffffffffffffffffffffffffffffffff1673ffffffffffffffffffffffffffffffffffffffff163373ffffffffffffffffffffffffffffffffffffffff16141515610dc157600080fd5b600073ffffffffffffffffffffffffffffffffffffffff168173ffffffffffffffffffffffffffffffffffffffff16141515610f095780600560006101000a81548173ffffffffffffffffffffffffffffffffffffffff021916908373ffffffffffffffffffffffffffffffffffffffff160217905550600660009054906101000a900473ffffffffffffffffffffffffffffffffffffffff1673ffffffffffffffffffffffffffffffffffffffff166314f80083826040518263ffffffff167c0100000000000000000000000000000000000000000000000000000000028152600401808273ffffffffffffffffffffffffffffffffffffffff1673ffffffffffffffffffffffffffffffffffffffff168152602001915050600060405180830381600087803b1515610ef457600080fd5b6102c65a03f11515610f0557600080fd5b5050505b50565b60008060009054906101000a900473ffffffffffffffffffffffffffffffffffffffff1673ffffffffffffffffffffffffffffffffffffffff163373ffffffffffffffffffffffffffffffffffffffff16141515610f6957600080fd5b8173ffffffffffffffffffffffffffffffffffffffff166370a08231306000604051602001526040518263ffffffff167c0100000000000000000000000000000000000000000000000000000000028152600401808273ffffffffffffffffffffffffffffffffffffffff1673ffffffffffffffffffffffffffffffffffffffff168152602001915050602060405180830381600087803b151561100c57600080fd5b6102c65a03f1151561101d57600080fd5b5050506040518051905090506110756000809054906101000a900473ffffffffffffffffffffffffffffffffffffffff16828473ffffffffffffffffffffffffffffffffffffffff16611e389092919063ffffffff16565b5050565b60035481565b635a72588081565b690a968163f0a57b40000081565b60008060009054906101000a900473ffffffffffffffffffffffffffffffffffffffff1673ffffffffffffffffffffffffffffffffffffffff163373ffffffffffffffffffffffffffffffffffffffff161415156110f257600080fd5b600073ffffffffffffffffffffffffffffffffffffffff168273ffffffffffffffffffffffffffffffffffffffff161415151561112e57600080fd5b6001600d60008473ffffffffffffffffffffffffffffffffffffffff1673ffffffffffffffffffffffffffffffffffffffff16815260200190815260200160002060006101000a81548160ff021916908360ff1602179055508173ffffffffffffffffffffffffffffffffffffffff167f86eba8651458cc924e4911e8a0a31258558de0474fdc43da05cea932cf130aad60405160405180910390a260019050919050565b6000809054906101000a900473ffffffffffffffffffffffffffffffffffffffff1673ffffffffffffffffffffffffffffffffffffffff163373ffffffffffffffffffffffffffffffffffffffff1614151561122e57600080fd5b8060028190555050565b6000809054906101000a900473ffffffffffffffffffffffffffffffffffffffff1673ffffffffffffffffffffffffffffffffffffffff163373ffffffffffffffffffffffffffffffffffffffff1614151561129357600080fd5b600060149054906101000a900460ff1615156112ae57600080fd5b60008060146101000a81548160ff0219169083151502179055507f7805862f689e2f13df9f062ff482ad3ad112aca9e0847911ed832e158c525b3360405160405180910390a1565b60085481565b635b38197f81565b6000809054906101000a900473ffffffffffffffffffffffffffffffffffffffff1673ffffffffffffffffffffffffffffffffffffffff163373ffffffffffffffffffffffffffffffffffffffff1614151561135f57600080fd5b600a60009054906101000a900460ff1615151561137b57600080fd5b611383611630565b151561138e57600080fd5b611396611f0b565b7f6823b073d48d6e3a7d385eeb601452d680e74bb46afe3255a7d778f3a9b1768160405160405180910390a16001600a60006101000a81548160ff021916908315150217905550565b6000809054906101000a900473ffffffffffffffffffffffffffffffffffffffff1673ffffffffffffffffffffffffffffffffffffffff163373ffffffffffffffffffffffffffffffffffffffff1614151561143a57600080fd5b600160009054906101000a900473ffffffffffffffffffffffffffffffffffffffff1673ffffffffffffffffffffffffffffffffffffffff166340c10f1983836000604051602001526040518363ffffffff167c0100000000000000000000000000000000000000000000000000000000028152600401808373ffffffffffffffffffffffffffffffffffffffff1673ffffffffffffffffffffffffffffffffffffffff16815260200182815260200192505050602060405180830381600087803b151561150757600080fd5b6102c65a03f1151561151857600080fd5b50505060405180519050507fd5280c283678e8bc2841d06cde20967334f270d803700a194cfb24468c2e92e28282604051808373ffffffffffffffffffffffffffffffffffffffff1673ffffffffffffffffffffffffffffffffffffffff1681526020018281526020019250505060405180910390a15050565b68015af1d78b58c4000081565b6000809054906101000a900473ffffffffffffffffffffffffffffffffffffffff1673ffffffffffffffffffffffffffffffffffffffff163373ffffffffffffffffffffffffffffffffffffffff161415156115fa57600080fd5b8060098190555050565b600060149054906101000a900460ff1681565b60095481565b68cb49b44ba602d8000081565b6103e881565b600080600b5461164d600954600854611d2990919063ffffffff16565b10159050808061165e575060035442115b91505090565b6000600c54611680600954600854611d2990919063ffffffff16565b1015905090565b60008060009054906101000a900473ffffffffffffffffffffffffffffffffffffffff1673ffffffffffffffffffffffffffffffffffffffff163373ffffffffffffffffffffffffffffffffffffffff161415156116e457600080fd5b600160009054906101000a900473ffffffffffffffffffffffffffffffffffffffff1673ffffffffffffffffffffffffffffffffffffffff166340c10f1985846000604051602001526040518363ffffffff167c0100000000000000000000000000000000000000000000000000000000028152600401808373ffffffffffffffffffffffffffffffffffffffff1673ffffffffffffffffffffffffffffffffffffffff16815260200182815260200192505050602060405180830381600087803b15156117b157600080fd5b6102c65a03f115156117c257600080fd5b50505060405180519050507fbeba2f4229a7685ed23a6e00aa21ff4d946ef2079410c3c0e9418f29caa4ec5b838386604051808473ffffffffffffffffffffffffffffffffffffffff1673ffffffffffffffffffffffffffffffffffffffff1681526020018381526020018273ffffffffffffffffffffffffffffffffffffffff1673ffffffffffffffffffffffffffffffffffffffff168152602001935050505060405180910390a18390509392505050565b60025481565b6000809054906101000a900473ffffffffffffffffffffffffffffffffffffffff1673ffffffffffffffffffffffffffffffffffffffff163373ffffffffffffffffffffffffffffffffffffffff161415156118d757600080fd5b600060149054906101000a900460ff161515156118f357600080fd5b6001600060146101000a81548160ff0219169083151502179055507f6985a02210a168e66602d3235cb6db0e70f92b3ba4d376a33c0f3d9434bff62560405160405180910390a1565b600a60009054906101000a900460ff1681565b6000809054906101000a900473ffffffffffffffffffffffffffffffffffffffff1681565b6000809054906101000a900473ffffffffffffffffffffffffffffffffffffffff1673ffffffffffffffffffffffffffffffffffffffff163373ffffffffffffffffffffffffffffffffffffffff161415156119cf57600080fd5b8060078190555050565b600d6020528060005260406000206000915054906101000a900460ff1681565b600b5481565b60045481565b600a60009054906101000a900460ff161515611a2057600080fd5b611a28611664565b151515611a3457600080fd5b600660009054906101000a900473ffffffffffffffffffffffffffffffffffffffff1673ffffffffffffffffffffffffffffffffffffffff1663fa89401a336040518263ffffffff167c0100000000000000000000000000000000000000000000000000000000028152600401808273ffffffffffffffffffffffffffffffffffffffff1673ffffffffffffffffffffffffffffffffffffffff168152602001915050600060405180830381600087803b1515611af057600080fd5b6102c65a03f11515611b0157600080fd5b505050565b67016345785d8a000081565b600080fd5b600560009054906101000a900473ffffffffffffffffffffffffffffffffffffffff1681565b6000809054906101000a900473ffffffffffffffffffffffffffffffffffffffff1673ffffffffffffffffffffffffffffffffffffffff163373ffffffffffffffffffffffffffffffffffffffff16141515611b9857600080fd5b80600b8190555050565b6000809054906101000a900473ffffffffffffffffffffffffffffffffffffffff1673ffffffffffffffffffffffffffffffffffffffff163373ffffffffffffffffffffffffffffffffffffffff16141515611bfd57600080fd5b600073ffffffffffffffffffffffffffffffffffffffff168173ffffffffffffffffffffffffffffffffffffffff1614151515611c3957600080fd5b8073ffffffffffffffffffffffffffffffffffffffff166000809054906101000a900473ffffffffffffffffffffffffffffffffffffffff1673ffffffffffffffffffffffffffffffffffffffff167f8be0079c531659141344cd1fd0a4f28419497f9722a3daafe3b4186f6b6457e060405160405180910390a3806000806101000a81548173ffffffffffffffffffffffffffffffffffffffff021916908373ffffffffffffffffffffffffffffffffffffffff16021790555050565b60075481565b600c5481565b600160009054906101000a900473ffffffffffffffffffffffffffffffffffffffff1681565b6000808284019050838110151515611d3d57fe5b8091505092915050565b6000611d5e600754836123ab90919063ffffffff16565b9050919050565b600660009054906101000a900473ffffffffffffffffffffffffffffffffffffffff1673ffffffffffffffffffffffffffffffffffffffff1663f340fa0134336040518363ffffffff167c0100000000000000000000000000000000000000000000000000000000028152600401808273ffffffffffffffffffffffffffffffffffffffff1673ffffffffffffffffffffffffffffffffffffffff1681526020019150506000604051808303818588803b1515611e2157600080fd5b6125ee5a03f11515611e3257600080fd5b50505050565b8273ffffffffffffffffffffffffffffffffffffffff1663a9059cbb83836000604051602001526040518363ffffffff167c0100000000000000000000000000000000000000000000000000000000028152600401808373ffffffffffffffffffffffffffffffffffffffff1673ffffffffffffffffffffffffffffffffffffffff16815260200182815260200192505050602060405180830381600087803b1515611ee357600080fd5b6102c65a03f11515611ef457600080fd5b505050604051805190501515611f0657fe5b505050565b600080611f16611664565b1561230d57600660009054906101000a900473ffffffffffffffffffffffffffffffffffffffff1673ffffffffffffffffffffffffffffffffffffffff166343d726d66040518163ffffffff167c0100000000000000000000000000000000000000000000000000000000028152600401600060405180830381600087803b1515611fa057600080fd5b6102c65a03f11515611fb157600080fd5b505050600160009054906101000a900473ffffffffffffffffffffffffffffffffffffffff1673ffffffffffffffffffffffffffffffffffffffff166318160ddd6000604051602001526040518163ffffffff167c0100000000000000000000000000000000000000000000000000000000028152600401602060405180830381600087803b151561204257600080fd5b6102c65a03f1151561205357600080fd5b505050604051805190509150819050600160009054906101000a900473ffffffffffffffffffffffffffffffffffffffff1673ffffffffffffffffffffffffffffffffffffffff166340c10f19600560009054906101000a900473ffffffffffffffffffffffffffffffffffffffff16836000604051602001526040518363ffffffff167c0100000000000000000000000000000000000000000000000000000000028152600401808373ffffffffffffffffffffffffffffffffffffffff1673ffffffffffffffffffffffffffffffffffffffff16815260200182815260200192505050602060405180830381600087803b151561215157600080fd5b6102c65a03f1151561216257600080fd5b5050506040518051905050600160009054906101000a900473ffffffffffffffffffffffffffffffffffffffff1673ffffffffffffffffffffffffffffffffffffffff16637d64bcb46000604051602001526040518163ffffffff167c0100000000000000000000000000000000000000000000000000000000028152600401602060405180830381600087803b15156121fb57600080fd5b6102c65a03f1151561220c57600080fd5b5050506040518051905050600160009054906101000a900473ffffffffffffffffffffffffffffffffffffffff1673ffffffffffffffffffffffffffffffffffffffff1663f2fde38b6000809054906101000a900473ffffffffffffffffffffffffffffffffffffffff166040518263ffffffff167c0100000000000000000000000000000000000000000000000000000000028152600401808273ffffffffffffffffffffffffffffffffffffffff1673ffffffffffffffffffffffffffffffffffffffff168152602001915050600060405180830381600087803b15156122f457600080fd5b6102c65a03f1151561230557600080fd5b5050506123a7565b600660009054906101000a900473ffffffffffffffffffffffffffffffffffffffff1673ffffffffffffffffffffffffffffffffffffffff16638c52dc416040518163ffffffff167c0100000000000000000000000000000000000000000000000000000000028152600401600060405180830381600087803b151561239257600080fd5b6102c65a03f115156123a357600080fd5b5050505b5050565b60008060008414156123c057600091506123df565b82840290508284828115156123d157fe5b041415156123db57fe5b8091505b50929150505600a165627a7a72305820eb325ff5fb9c4f8b99b5ff7c5a463d3d0eac6f22a5fefefd4dca371fd551782400296060604052341561000f57600080fd5b336000806101000a81548173ffffffffffffffffffffffffffffffffffffffff021916908373ffffffffffffffffffffffffffffffffffffffff1602179055506000600260146101000a81548160ff0219169083600281111561006e57fe5b0217905550610a75806100826000396000f3006060604052600436106100a4576000357c0100000000000000000000000000000000000000000000000000000000900463ffffffff16806314f80083146100a957806343d726d6146100e25780638c52dc41146100f75780638da5cb5b1461010c578063c19d93fb14610161578063cb13cddb14610198578063d0c03f35146101e5578063f2fde38b1461023a578063f340fa0114610273578063fa89401a146102a1575b600080fd5b34156100b457600080fd5b6100e0600480803573ffffffffffffffffffffffffffffffffffffffff169060200190919050506102da565b005b34156100ed57600080fd5b6100f56103b0565b005b341561010257600080fd5b61010a610509565b005b341561011757600080fd5b61011f6105ea565b604051808273ffffffffffffffffffffffffffffffffffffffff1673ffffffffffffffffffffffffffffffffffffffff16815260200191505060405180910390f35b341561016c57600080fd5b61017461060f565b6040518082600281111561018457fe5b60ff16815260200191505060405180910390f35b34156101a357600080fd5b6101cf600480803573ffffffffffffffffffffffffffffffffffffffff16906020019091905050610622565b6040518082815260200191505060405180910390f35b34156101f057600080fd5b6101f861063a565b604051808273ffffffffffffffffffffffffffffffffffffffff1673ffffffffffffffffffffffffffffffffffffffff16815260200191505060405180910390f35b341561024557600080fd5b610271600480803573ffffffffffffffffffffffffffffffffffffffff16906020019091905050610660565b005b61029f600480803573ffffffffffffffffffffffffffffffffffffffff169060200190919050506107b5565b005b34156102ac57600080fd5b6102d8600480803573ffffffffffffffffffffffffffffffffffffffff169060200190919050506108dc565b005b6000809054906101000a900473ffffffffffffffffffffffffffffffffffffffff1673ffffffffffffffffffffffffffffffffffffffff163373ffffffffffffffffffffffffffffffffffffffff1614151561033557600080fd5b600073ffffffffffffffffffffffffffffffffffffffff168173ffffffffffffffffffffffffffffffffffffffff161415156103ad5780600260006101000a81548173ffffffffffffffffffffffffffffffffffffffff021916908373ffffffffffffffffffffffffffffffffffffffff1602179055505b50565b6000809054906101000a900473ffffffffffffffffffffffffffffffffffffffff1673ffffffffffffffffffffffffffffffffffffffff163373ffffffffffffffffffffffffffffffffffffffff1614151561040b57600080fd5b6000600281111561041857fe5b600260149054906101000a900460ff16600281111561043357fe5b14151561043f57600080fd5b60028060146101000a81548160ff0219169083600281111561045d57fe5b02179055507f1cdde67b72a90f19919ac732a437ac2f7a10fc128d28c2a6e525d89ce5cd9d3a60405160405180910390a1600260009054906101000a900473ffffffffffffffffffffffffffffffffffffffff1673ffffffffffffffffffffffffffffffffffffffff166108fc3073ffffffffffffffffffffffffffffffffffffffff16319081150290604051600060405180830381858888f19350505050151561050757600080fd5b565b6000809054906101000a900473ffffffffffffffffffffffffffffffffffffffff1673ffffffffffffffffffffffffffffffffffffffff163373ffffffffffffffffffffffffffffffffffffffff1614151561056457600080fd5b6000600281111561057157fe5b600260149054906101000a900460ff16600281111561058c57fe5b14151561059857600080fd5b6001600260146101000a81548160ff021916908360028111156105b757fe5b02179055507f599d8e5a83cffb867d051598c4d70e805d59802d8081c1c7d6dffc5b6aca2b8960405160405180910390a1565b6000809054906101000a900473ffffffffffffffffffffffffffffffffffffffff1681565b600260149054906101000a900460ff1681565b60016020528060005260406000206000915090505481565b600260009054906101000a900473ffffffffffffffffffffffffffffffffffffffff1681565b6000809054906101000a900473ffffffffffffffffffffffffffffffffffffffff1673ffffffffffffffffffffffffffffffffffffffff163373ffffffffffffffffffffffffffffffffffffffff161415156106bb57600080fd5b600073ffffffffffffffffffffffffffffffffffffffff168173ffffffffffffffffffffffffffffffffffffffff16141515156106f757600080fd5b8073ffffffffffffffffffffffffffffffffffffffff166000809054906101000a900473ffffffffffffffffffffffffffffffffffffffff1673ffffffffffffffffffffffffffffffffffffffff167f8be0079c531659141344cd1fd0a4f28419497f9722a3daafe3b4186f6b6457e060405160405180910390a3806000806101000a81548173ffffffffffffffffffffffffffffffffffffffff021916908373ffffffffffffffffffffffffffffffffffffffff16021790555050565b6000809054906101000a900473ffffffffffffffffffffffffffffffffffffffff1673ffffffffffffffffffffffffffffffffffffffff163373ffffffffffffffffffffffffffffffffffffffff1614151561081057600080fd5b6000600281111561081d57fe5b600260149054906101000a900460ff16600281111561083857fe5b14151561084457600080fd5b61089634600160008473ffffffffffffffffffffffffffffffffffffffff1673ffffffffffffffffffffffffffffffffffffffff16815260200190815260200160002054610a2b90919063ffffffff16565b600160008373ffffffffffffffffffffffffffffffffffffffff1673ffffffffffffffffffffffffffffffffffffffff1681526020019081526020016000208190555050565b6000600160028111156108eb57fe5b600260149054906101000a900460ff16600281111561090657fe5b14151561091257600080fd5b600160008373ffffffffffffffffffffffffffffffffffffffff1673ffffffffffffffffffffffffffffffffffffffff1681526020019081526020016000205490506000600160008473ffffffffffffffffffffffffffffffffffffffff1673ffffffffffffffffffffffffffffffffffffffff168152602001908152602001600020819055508173ffffffffffffffffffffffffffffffffffffffff166108fc829081150290604051600060405180830381858888f1935050505015156109d957600080fd5b8173ffffffffffffffffffffffffffffffffffffffff167fd7dee2702d63ad89917b6a4da9981c90c4d24f8c2bdfd64c604ecae57d8d0651826040518082815260200191505060405180910390a25050565b6000808284019050838110151515610a3f57fe5b80915050929150505600a165627a7a723058205a313f1a50ecc9a3ac760ec14e05d352269c2c0f47a028159a617abc88d3ddc10029",
  "source": "pragma solidity ^0.4.18;\r\n\r\n// combined Finalizable, Capped, Refundable Crowdsale\r\n// renamed some variables for clarity of meaning\r\n// added weiRaisedFromOthers, modified Capped definition to take into consideration of that\r\n// sale constructor takes no parameters, but with defaults configured in config file\r\n//   and added setters method for owner to change\r\n// spelt out validPurchase requirement in buyTokens function directly\r\n// made the sale contract pausable\r\n\r\nimport './SafeMath.sol';\r\nimport './Ownable.sol';\r\nimport './Pausable.sol';\r\nimport './SafeERC20.sol';\r\nimport './DirectToken.sol';\r\nimport './HasNoTokens.sol';\r\nimport './RefundVault.sol';\r\nimport \"./DirectHomeCrowdsaleConfig.sol\";\r\n//import \"./DirectHomeVestingHelper.sol\";\r\n\r\n/**\r\n * @title Crowdsale\r\n * @dev Crowdsale is a base contract for managing a token crowdsale.\r\n * Crowdsales have a start and end timestamps, where investors can make\r\n * token purchases and the crowdsale will assign them tokens based\r\n * on a token per ETH rate. Funds collected are forwarded to a wallet\r\n * as they arrive. The contract requires a MintableToken that will be\r\n * minted as contributions arrive, note that the crowdsale contract\r\n * must be owner of the token in order to be able to mint it.\r\n */\r\ncontract DirectHomeCrowdsale is DirectHomeCrowdsaleConfig, Ownable, Pausable, HasNoTokens {\r\n  using SafeMath for uint256;\r\n\r\n  // The token being sold\r\n  DirectToken public token; // = new DirectToken();\r\n\r\n  // start and end timestamps where investments are allowed (both inclusive)\r\n  uint256 public startTime = CROWDSALE_START_TIME;\r\n  uint256 public endTime = CROWDSALE_END_TIME;\r\n  uint256 public pausedTime;\r\n\r\n  // address where funds are collected\r\n  address public multisigVault;\r\n  RefundVault public refundVault = new RefundVault();\r\n\r\n  // how many token units a buyer gets per wei\r\n  uint256 public tokensPerEther = TOKENS_PER_ETHER;  // renamed from rate for the clarity\r\n\r\n  // amount of raised money in wei from direct crowdsale purchase\r\n  uint256 public weiRaised;\r\n  // amount of raised money in wei for purchase in FIAT or altcoins\r\n  uint256 public weiRaisedFromOthers;\r\n\r\n  bool public isFinalized = false;\r\n  uint256 public hardcap = HARDCAP;\r\n  uint256 public softcap = SOFTCAP;\r\n\r\n  // Map of addresses that have been whitelisted in advance (and passed KYC).\r\n  mapping(address => uint8) public whitelist;\r\n\r\n  /**\r\n   * event for token purchase logging\r\n   * @param purchaser who paid for the tokens\r\n   * @param beneficiary who got the tokens\r\n   * @param weiAmount weis paid for purchase\r\n   * @param tokens amount of tokens purchased\r\n   */\r\n  event TokenPurchase(address indexed purchaser, address indexed beneficiary, uint256 weiAmount, uint256 tokens);\r\n\r\n  event AuthorizedCreate(address beneficiary, uint256 tokens);\r\n  event AuthorizedCreateWithVesting(address beneficiary, uint256 tokens, address vesting);\r\n  event WhitelistUpdated(address indexed beneficiary);\r\n  event Finalized();\r\n\r\n  function DirectHomeCrowdsale(DirectToken _token) public {\r\n    token = _token;\r\n  }\r\n\r\n  //function DirectHomeCrowdsale() public {  }\r\n\r\n  // fallback function can be used to buy tokens\r\n  function () external whenNotPaused payable {\r\n    buyTokens(msg.sender);\r\n  }\r\n\r\n  // low level token purchase function\r\n  function buyTokens(address beneficiary) public payable whenNotPaused {\r\n    require(multisigVault != address(0));\r\n    require(beneficiary != address(0));\r\n    require(now >= startTime && now <= endTime);\r\n\r\n    uint256 weiAmount = msg.value;\r\n    require(weiAmount >= CONTRIBUTION_MIN);\r\n    require(weiAmount <= CONTRIBUTION_MAX_NO_WHITELIST || whitelist[beneficiary] > 0);\r\n    require(weiAmount.add(weiRaised).add(weiRaisedFromOthers) <= hardcap);\r\n\r\n    // calculate token amount to be created\r\n    uint256 tokens = getTokenAmount(weiAmount);\r\n\r\n    // update state\r\n    weiRaised = weiRaised.add(weiAmount);\r\n\r\n    token.mint(beneficiary, tokens);\r\n    TokenPurchase(msg.sender, beneficiary, weiAmount, tokens);\r\n\r\n    forwardFunds();\r\n  }\r\n\r\n  /**\r\n   * @dev Allows authorized acces to create tokens. This is used for Bitcoin and ERC20 deposits\r\n   * @param recipient the recipient to receive tokens.\r\n   * @param tokens number of tokens to be created.\r\n   */\r\n  function authorizedCreateTokens(address recipient, uint256 tokens) public onlyOwner {\r\n    token.mint(recipient, tokens);\r\n    AuthorizedCreate(recipient, tokens);\r\n  }\r\n\r\n  /**\r\n   * @dev Allows authorized acces to create tokens. This is used for Bitcoin and ERC20 deposits\r\n   * @param recipient the recipient to receive tokens.\r\n   * @param tokens number of tokens to be created.\r\n   */\r\n  function authorizedCreateTokensVesting(address vesting, address recipient, uint256 tokens) public onlyOwner returns(address) {\r\n    //address vesting = new PrivateSaleVesting(recipient);\r\n    token.mint(vesting, tokens);\r\n    AuthorizedCreateWithVesting(recipient, tokens, vesting);\r\n    return vesting;\r\n  }\r\n\r\n  // sets wei amount raised from others (Fiat and alt coins)\r\n  function setWeiRaisedFromOthers(uint256 _weiRaisedFromOthers) public onlyOwner {\r\n    weiRaisedFromOthers = _weiRaisedFromOthers;\r\n  }\r\n\r\n  // overriding Crowdsale#hasEnded to add cap logic\r\n  // @return true if crowdsale event has ended either due to time or hardcap\r\n  function hasSaleEnded() public view returns (bool) {\r\n    bool capReached = weiRaised.add(weiRaisedFromOthers) >= hardcap;\r\n    return capReached || now > endTime;\r\n  }\r\n\r\n\r\n  // Override this method to have a way to add business logic to your crowdsale when buying\r\n  function getTokenAmount(uint256 weiAmount) internal view returns(uint256) {\r\n    return weiAmount.mul(tokensPerEther);   // note: both eth and DirectToken has 18 DECIMALS, hence omitting .div(10**(uint256(18) - TOKEN_DECIMALS))\r\n  }\r\n\r\n  // send ether to the fund collection wallet\r\n  // override to create custom fund forwarding mechanisms\r\n  function forwardFunds() internal {\r\n    //multisigVault.transfer(msg.value);\r\n    refundVault.deposit.value(msg.value)(msg.sender);\r\n  }\r\n\r\n\r\n  /**\r\n   * @dev Allows the owner to set the hardcap.\r\n   * @param _hardcap the new hardcap\r\n   */\r\n  function setHardCap(uint _hardcap) public onlyOwner {\r\n    hardcap = _hardcap;\r\n  }\r\n\r\n  /**\r\n   * @dev Allows the owner to set the starting time.\r\n   * @param _startTime the new startTime\r\n   */\r\n  function setStartTime(uint256 _startTime) public onlyOwner {\r\n    startTime = _startTime;\r\n  }\r\n\r\n  /**\r\n   * @dev Allows the owner to set the multisig contract.\r\n   * @param _multisigVault the multisig contract address\r\n   */\r\n  function setMultisigVault(address _multisigVault) public onlyOwner {\r\n    if (_multisigVault != address(0)) {\r\n      multisigVault = _multisigVault;\r\n      refundVault.setMultisigVault(_multisigVault);\r\n    }\r\n  }\r\n\r\n  /**\r\n   * @dev Allows the owner to set the exchangerate contract.\r\n   * @param _tokensPerEther the exchangerate address\r\n   */\r\n  function setTokensPerEther(uint256 _tokensPerEther) public onlyOwner {\r\n    tokensPerEther = _tokensPerEther;\r\n  }\r\n\r\n  //\r\n  // WHITELIST\r\n  //\r\n\r\n  // Allows ops to add accounts to the whitelist.\r\n  // Only those accounts will be allowed to contribute during the sale.\r\n  // _phase = 1: Can contribute during phases 1 and 2 of the sale.\r\n  // _phase = 2: Can contribute during phase 2 of the sale only.\r\n  // _phase = 0: Cannot contribute at all (not whitelisted).\r\n  function updateWhitelist(address _account) external onlyOwner returns (bool) {\r\n      require(_account != address(0));\r\n      whitelist[_account] = 1;\r\n      WhitelistUpdated(_account);\r\n      return true;\r\n  }\r\n\r\n  // if crowdsale is unsuccessful ie not hitting softcap, investors can claim refunds here\r\n  function claimRefund() public {\r\n    require(isFinalized);\r\n    require(!softcapReached());\r\n\r\n    refundVault.refund(msg.sender);\r\n  }\r\n\r\n  function softcapReached() public view returns (bool) {\r\n    return weiRaised.add(weiRaisedFromOthers) >= softcap;\r\n  }\r\n\r\n\r\n  /**\r\n   * @dev Must be called after crowdsale ends, to do some extra finalization\r\n   * work. Calls the contract's finalization function.\r\n   */\r\n  function finalize() onlyOwner public {\r\n    require(!isFinalized);\r\n    require(hasSaleEnded());\r\n\r\n    finalization();\r\n    Finalized();\r\n\r\n    isFinalized = true;\r\n  }\r\n\r\n  // vault finalization task, called when owner calls finalize()\r\n  function finalization() internal {\r\n    if (softcapReached()) {\r\n      refundVault.close();\r\n      uint issuedTokenSupply = token.totalSupply();\r\n      uint restrictedTokens = issuedTokenSupply;\r\n      token.mint(multisigVault, restrictedTokens);\r\n      token.finishMinting();\r\n      token.transferOwnership(owner);\r\n    } else {\r\n      refundVault.enableRefunds();\r\n    }\r\n  }\r\n\r\n\r\n}\r\n",
  "sourcePath": "/home/bennyliaw/DToken/contracts/DirectHomeCrowdsale.sol",
  "compiler": {
    "name": "solc",
    "version": "0.4.18+commit.9cf6e910.Emscripten.clang"
  },
  "schemaVersion": "1.0.1",
  "updatedAt": "2018-02-09T07:09:12.614Z"
}