{
  "contractName": "DirectHomeCrowdsaleConfig",
  "abi": [
    {
      "constant": true,
      "inputs": [],
      "name": "CROWDSALE_START_TIME",
      "outputs": [
        {
          "name": "",
          "type": "uint256"
        }
      ],
      "payable": false,
      "stateMutability": "view",
      "type": "function"
    },
    {
      "constant": true,
      "inputs": [],
      "name": "HARDCAP",
      "outputs": [
        {
          "name": "",
          "type": "uint256"
        }
      ],
      "payable": false,
      "stateMutability": "view",
      "type": "function"
    },
    {
      "constant": true,
      "inputs": [],
      "name": "CROWDSALE_END_TIME",
      "outputs": [
        {
          "name": "",
          "type": "uint256"
        }
      ],
      "payable": false,
      "stateMutability": "view",
      "type": "function"
    },
    {
      "constant": true,
      "inputs": [],
      "name": "CONTRIBUTION_MAX_NO_WHITELIST",
      "outputs": [
        {
          "name": "",
          "type": "uint256"
        }
      ],
      "payable": false,
      "stateMutability": "view",
      "type": "function"
    },
    {
      "constant": true,
      "inputs": [],
      "name": "SOFTCAP",
      "outputs": [
        {
          "name": "",
          "type": "uint256"
        }
      ],
      "payable": false,
      "stateMutability": "view",
      "type": "function"
    },
    {
      "constant": true,
      "inputs": [],
      "name": "TOKENS_PER_ETHER",
      "outputs": [
        {
          "name": "",
          "type": "uint256"
        }
      ],
      "payable": false,
      "stateMutability": "view",
      "type": "function"
    },
    {
      "constant": true,
      "inputs": [],
      "name": "CONTRIBUTION_MIN",
      "outputs": [
        {
          "name": "",
          "type": "uint256"
        }
      ],
      "payable": false,
      "stateMutability": "view",
      "type": "function"
    }
  ],
  "bytecode": "0x6060604052341561000f57600080fd5b61021d8061001e6000396000f300606060405260043610610083576000357c0100000000000000000000000000000000000000000000000000000000900463ffffffff168063389c6b8e146100885780633bd74880146100b157806344f6bc11146100da5780635655e37b14610103578063657123391461012c5780636b4a6ded14610155578063ba9bb8271461017e575b600080fd5b341561009357600080fd5b61009b6101a7565b6040518082815260200191505060405180910390f35b34156100bc57600080fd5b6100c46101af565b6040518082815260200191505060405180910390f35b34156100e557600080fd5b6100ed6101bd565b6040518082815260200191505060405180910390f35b341561010e57600080fd5b6101166101c5565b6040518082815260200191505060405180910390f35b341561013757600080fd5b61013f6101d2565b6040518082815260200191505060405180910390f35b341561016057600080fd5b6101686101df565b6040518082815260200191505060405180910390f35b341561018957600080fd5b6101916101e5565b6040518082815260200191505060405180910390f35b635a72588081565b690a968163f0a57b40000081565b635b38197f81565b68015af1d78b58c4000081565b68cb49b44ba602d8000081565b6103e881565b67016345785d8a0000815600a165627a7a72305820bcac64f3342aa716b3ce87152b04e8dd9b2dd1c8a976bf1f847eca05e8c052cc0029",
  "source": "pragma solidity ^0.4.18;\r\n\r\n// ----------------------------------------------------------------------------\r\n// Token Sale Configuration\r\n// ----------------------------------------------------------------------------\r\n\r\n\r\ncontract DirectHomeCrowdsaleConfig  {\r\n\r\n    uint256 public constant CROWDSALE_START_TIME      = 1517443200; // 2018-02-01 00:00:00 UTC\r\n    uint256 public constant CROWDSALE_END_TIME        = 1530403199; // 2018-06-30 23:59:59 UTC\r\n    uint256 public constant CONTRIBUTION_MIN          = 0.1 ether;\r\n    uint256 public constant CONTRIBUTION_MAX_NO_WHITELIST  = 25 ether;    // maximum acceptable contribution without whitelisting\r\n    uint256 public constant HARDCAP                   =  50000 ether;\r\n    uint256 public constant SOFTCAP                   =  3750 ether;\r\n\r\n    //uint256 public constant TARGET_ETH_SOFT_CAP       = 100000;\r\n\r\n\r\n    // Default conversion rate when deployed, changable later by\r\n    // calling the setTokensPerWei function on TokenSale contract\r\n\r\n    // For illustration: tokens are priced at 1 USD/token.\r\n    // So if we have 800 USD/ETH -> 800 USD/ETH / 0.8 USD/token = ~1000\r\n    uint256 public constant TOKENS_PER_ETHER       = 1000; // 10**(uint256(18));  // eg\r\n\r\n}\r\n",
  "sourcePath": "/home/bennyliaw/DToken/contracts/DirectHomeCrowdsaleConfig.sol",
  "compiler": {
    "name": "solc",
    "version": "0.4.18+commit.9cf6e910.Emscripten.clang"
  },
  "schemaVersion": "1.0.1",
  "updatedAt": "2018-02-09T06:48:42.903Z"
}