{
  "contractName": "DirectHomeVestingConfig",
  "abi": [
    {
      "constant": true,
      "inputs": [],
      "name": "PRIVATESALE_VESTING_START",
      "outputs": [
        {
          "name": "",
          "type": "uint256"
        }
      ],
      "payable": false,
      "stateMutability": "view",
      "type": "function"
    },
    {
      "constant": true,
      "inputs": [],
      "name": "FOUNDER_VESTING_START",
      "outputs": [
        {
          "name": "",
          "type": "uint256"
        }
      ],
      "payable": false,
      "stateMutability": "view",
      "type": "function"
    },
    {
      "constant": true,
      "inputs": [],
      "name": "FOUNDER_VESTING_DURATION",
      "outputs": [
        {
          "name": "",
          "type": "uint256"
        }
      ],
      "payable": false,
      "stateMutability": "view",
      "type": "function"
    },
    {
      "constant": true,
      "inputs": [],
      "name": "PRIVATESALE_VESTING_CLIFF",
      "outputs": [
        {
          "name": "",
          "type": "uint256"
        }
      ],
      "payable": false,
      "stateMutability": "view",
      "type": "function"
    },
    {
      "constant": true,
      "inputs": [],
      "name": "PRIVATESALE_VESTING_DURATION",
      "outputs": [
        {
          "name": "",
          "type": "uint256"
        }
      ],
      "payable": false,
      "stateMutability": "view",
      "type": "function"
    },
    {
      "constant": true,
      "inputs": [],
      "name": "FOUNDER_VESTING_CLIFF",
      "outputs": [
        {
          "name": "",
          "type": "uint256"
        }
      ],
      "payable": false,
      "stateMutability": "view",
      "type": "function"
    }
  ],
  "bytecode": "0x6060604052341561000f57600080fd5b6101cc8061001e6000396000f300606060405260043610610078576000357c0100000000000000000000000000000000000000000000000000000000900463ffffffff16806359bbf62d1461007d57806390635379146100a657806398f4cbf3146100cf578063c153db4b146100f8578063ca03a6c814610121578063fc8db11e1461014a575b600080fd5b341561008857600080fd5b610090610173565b6040518082815260200191505060405180910390f35b34156100b157600080fd5b6100b961017b565b6040518082815260200191505060405180910390f35b34156100da57600080fd5b6100e2610183565b6040518082815260200191505060405180910390f35b341561010357600080fd5b61010b61018b565b6040518082815260200191505060405180910390f35b341561012c57600080fd5b610134610192565b6040518082815260200191505060405180910390f35b341561015557600080fd5b61015d610199565b6040518082815260200191505060405180910390f35b635a72588081565b635a72588081565b6303b5380081565b6206978081565b62ed4e0081565b620d2f00815600a165627a7a72305820f2243033e98ffccaac9c45c39582b02bbd2d3464a0c0cd670bd724027ade5e1f0029",
  "source": "pragma solidity ^0.4.18;\r\n\r\n// ----------------------------------------------------------------------------\r\n// Token Sale Configuration\r\n// ----------------------------------------------------------------------------\r\n\r\n\r\ncontract DirectHomeVestingConfig  {\r\n\r\n    uint256 public constant PRIVATESALE_VESTING_START = 1517443200; // 2018-02-01 00:00:00 UTC\r\n    uint256 public constant PRIVATESALE_VESTING_CLIFF = 86400 * 5;\r\n    uint256 public constant PRIVATESALE_VESTING_DURATION = 86400 * 30 * 6;\r\n\r\n    uint256 public constant FOUNDER_VESTING_START = 1517443200; // 2018-02-01 00:00:00 UTC\r\n    uint256 public constant FOUNDER_VESTING_CLIFF = 86400 * 10;\r\n    uint256 public constant FOUNDER_VESTING_DURATION = 86400 * 30 * 24;\r\n\r\n}\r\n",
  "sourcePath": "/home/bennyliaw/DToken/contracts/DirectHomeVestingConfig.sol",
  "compiler": {
    "name": "solc",
    "version": "0.4.18+commit.9cf6e910.Emscripten.clang"
  },
  "schemaVersion": "1.0.1",
  "updatedAt": "2018-02-09T06:48:42.904Z"
}