{
  "contractName": "DirectHomeVestingConfig",
  "abi": [
    {
      "constant": true,
      "inputs": [],
      "name": "PRIVATESALE2_VESTING_DURATION",
      "outputs": [
        {
          "name": "",
          "type": "uint256"
        }
      ],
      "payable": false,
      "stateMutability": "view",
      "type": "function"
    },
    {
      "constant": true,
      "inputs": [],
      "name": "PRIVATESALE1_VESTING_START",
      "outputs": [
        {
          "name": "",
          "type": "uint256"
        }
      ],
      "payable": false,
      "stateMutability": "view",
      "type": "function"
    },
    {
      "constant": true,
      "inputs": [],
      "name": "PRIVATESALE2_VESTING_START",
      "outputs": [
        {
          "name": "",
          "type": "uint256"
        }
      ],
      "payable": false,
      "stateMutability": "view",
      "type": "function"
    },
    {
      "constant": true,
      "inputs": [],
      "name": "FOUNDER_VESTING_START",
      "outputs": [
        {
          "name": "",
          "type": "uint256"
        }
      ],
      "payable": false,
      "stateMutability": "view",
      "type": "function"
    },
    {
      "constant": true,
      "inputs": [],
      "name": "FOUNDER_VESTING_DURATION",
      "outputs": [
        {
          "name": "",
          "type": "uint256"
        }
      ],
      "payable": false,
      "stateMutability": "view",
      "type": "function"
    },
    {
      "constant": true,
      "inputs": [],
      "name": "PRIVATESALE1_VESTING_CLIFF",
      "outputs": [
        {
          "name": "",
          "type": "uint256"
        }
      ],
      "payable": false,
      "stateMutability": "view",
      "type": "function"
    },
    {
      "constant": true,
      "inputs": [],
      "name": "PRIVATESALE1_VESTING_DURATION",
      "outputs": [
        {
          "name": "",
          "type": "uint256"
        }
      ],
      "payable": false,
      "stateMutability": "view",
      "type": "function"
    },
    {
      "constant": true,
      "inputs": [],
      "name": "PRIVATESALE2_VESTING_CLIFF",
      "outputs": [
        {
          "name": "",
          "type": "uint256"
        }
      ],
      "payable": false,
      "stateMutability": "view",
      "type": "function"
    },
    {
      "constant": true,
      "inputs": [],
      "name": "FOUNDER_VESTING_CLIFF",
      "outputs": [
        {
          "name": "",
          "type": "uint256"
        }
      ],
      "payable": false,
      "stateMutability": "view",
      "type": "function"
    }
  ],
  "bytecode": "0x6060604052341561000f57600080fd5b61027e8061001e6000396000f300606060405260043610610099576000357c0100000000000000000000000000000000000000000000000000000000900463ffffffff168063096f16b51461009e5780633032cbf7146100c7578063621e5364146100f0578063906353791461011957806398f4cbf3146101425780639b9db7611461016b578063a82155bc14610194578063bda7b2a3146101bd578063fc8db11e146101e6575b600080fd5b34156100a957600080fd5b6100b161020f565b6040518082815260200191505060405180910390f35b34156100d257600080fd5b6100da610216565b6040518082815260200191505060405180910390f35b34156100fb57600080fd5b61010361021e565b6040518082815260200191505060405180910390f35b341561012457600080fd5b61012c610226565b6040518082815260200191505060405180910390f35b341561014d57600080fd5b61015561022e565b6040518082815260200191505060405180910390f35b341561017657600080fd5b61017e610236565b6040518082815260200191505060405180910390f35b341561019f57600080fd5b6101a761023d565b6040518082815260200191505060405180910390f35b34156101c857600080fd5b6101d0610244565b6040518082815260200191505060405180910390f35b34156101f157600080fd5b6101f961024b565b6040518082815260200191505060405180910390f35b62ed4e0081565b635a72588081565b635a72588081565b635a72588081565b6303b5380081565b6206978081565b62ed4e0081565b6206978081565b620d2f00815600a165627a7a723058206451a9abd9238b71f9ed31daeab154adb2b74d6d1b699ca9de36a59b7819e5320029",
  "source": "pragma solidity ^0.4.18;\r\n\r\n// ----------------------------------------------------------------------------\r\n// Token Sale Configuration\r\n// ----------------------------------------------------------------------------\r\n\r\n\r\ncontract DirectHomeVestingConfig  {\r\n\r\n    uint256 public constant PRIVATESALE1_VESTING_START = 1517443200; // 2018-02-01 00:00:00 UTC\r\n    uint256 public constant PRIVATESALE1_VESTING_CLIFF = 86400 * 5;\r\n    uint256 public constant PRIVATESALE1_VESTING_DURATION = 86400 * 30 * 6;\r\n\r\n    uint256 public constant PRIVATESALE2_VESTING_START = 1517443200; // 2018-02-01 00:00:00 UTC\r\n    uint256 public constant PRIVATESALE2_VESTING_CLIFF = 86400 * 5;\r\n    uint256 public constant PRIVATESALE2_VESTING_DURATION = 86400 * 30 * 6;\r\n\r\n    uint256 public constant FOUNDER_VESTING_START = 1517443200; // 2018-02-01 00:00:00 UTC\r\n    uint256 public constant FOUNDER_VESTING_CLIFF = 86400 * 10;\r\n    uint256 public constant FOUNDER_VESTING_DURATION = 86400 * 30 * 24;\r\n\r\n}\r\n",
  "sourcePath": "/mnt/c/Shared/DToken/contracts/DirectHomeVestingConfig.sol",
  "compiler": {
    "name": "solc",
    "version": "0.4.18+commit.9cf6e910.Emscripten.clang"
  },
  "schemaVersion": "1.0.1",
  "updatedAt": "2018-02-14T06:17:48.922Z"
}