{
  "contractName": "FounderVesting",
  "abi": [
    {
      "constant": true,
      "inputs": [],
      "name": "duration",
      "outputs": [
        {
          "name": "",
          "type": "uint256"
        }
      ],
      "payable": false,
      "stateMutability": "view",
      "type": "function"
    },
    {
      "constant": true,
      "inputs": [],
      "name": "cliff",
      "outputs": [
        {
          "name": "",
          "type": "uint256"
        }
      ],
      "payable": false,
      "stateMutability": "view",
      "type": "function"
    },
    {
      "constant": true,
      "inputs": [
        {
          "name": "token",
          "type": "address"
        }
      ],
      "name": "releasableAmount",
      "outputs": [
        {
          "name": "",
          "type": "uint256"
        }
      ],
      "payable": false,
      "stateMutability": "view",
      "type": "function"
    },
    {
      "constant": false,
      "inputs": [
        {
          "name": "token",
          "type": "address"
        }
      ],
      "name": "release",
      "outputs": [],
      "payable": false,
      "stateMutability": "nonpayable",
      "type": "function"
    },
    {
      "constant": true,
      "inputs": [
        {
          "name": "token",
          "type": "address"
        }
      ],
      "name": "vestedAmount",
      "outputs": [
        {
          "name": "",
          "type": "uint256"
        }
      ],
      "payable": false,
      "stateMutability": "view",
      "type": "function"
    },
    {
      "constant": true,
      "inputs": [],
      "name": "beneficiary",
      "outputs": [
        {
          "name": "",
          "type": "address"
        }
      ],
      "payable": false,
      "stateMutability": "view",
      "type": "function"
    },
    {
      "constant": true,
      "inputs": [],
      "name": "PRIVATESALE_VESTING_START",
      "outputs": [
        {
          "name": "",
          "type": "uint256"
        }
      ],
      "payable": false,
      "stateMutability": "view",
      "type": "function"
    },
    {
      "constant": false,
      "inputs": [
        {
          "name": "token",
          "type": "address"
        }
      ],
      "name": "revoke",
      "outputs": [],
      "payable": false,
      "stateMutability": "nonpayable",
      "type": "function"
    },
    {
      "constant": true,
      "inputs": [],
      "name": "revocable",
      "outputs": [
        {
          "name": "",
          "type": "bool"
        }
      ],
      "payable": false,
      "stateMutability": "view",
      "type": "function"
    },
    {
      "constant": true,
      "inputs": [],
      "name": "owner",
      "outputs": [
        {
          "name": "",
          "type": "address"
        }
      ],
      "payable": false,
      "stateMutability": "view",
      "type": "function"
    },
    {
      "constant": true,
      "inputs": [],
      "name": "FOUNDER_VESTING_START",
      "outputs": [
        {
          "name": "",
          "type": "uint256"
        }
      ],
      "payable": false,
      "stateMutability": "view",
      "type": "function"
    },
    {
      "constant": true,
      "inputs": [
        {
          "name": "",
          "type": "address"
        }
      ],
      "name": "released",
      "outputs": [
        {
          "name": "",
          "type": "uint256"
        }
      ],
      "payable": false,
      "stateMutability": "view",
      "type": "function"
    },
    {
      "constant": true,
      "inputs": [],
      "name": "FOUNDER_VESTING_DURATION",
      "outputs": [
        {
          "name": "",
          "type": "uint256"
        }
      ],
      "payable": false,
      "stateMutability": "view",
      "type": "function"
    },
    {
      "constant": true,
      "inputs": [],
      "name": "start",
      "outputs": [
        {
          "name": "",
          "type": "uint256"
        }
      ],
      "payable": false,
      "stateMutability": "view",
      "type": "function"
    },
    {
      "constant": true,
      "inputs": [],
      "name": "PRIVATESALE_VESTING_CLIFF",
      "outputs": [
        {
          "name": "",
          "type": "uint256"
        }
      ],
      "payable": false,
      "stateMutability": "view",
      "type": "function"
    },
    {
      "constant": true,
      "inputs": [],
      "name": "PRIVATESALE_VESTING_DURATION",
      "outputs": [
        {
          "name": "",
          "type": "uint256"
        }
      ],
      "payable": false,
      "stateMutability": "view",
      "type": "function"
    },
    {
      "constant": false,
      "inputs": [
        {
          "name": "newOwner",
          "type": "address"
        }
      ],
      "name": "transferOwnership",
      "outputs": [],
      "payable": false,
      "stateMutability": "nonpayable",
      "type": "function"
    },
    {
      "constant": true,
      "inputs": [
        {
          "name": "",
          "type": "address"
        }
      ],
      "name": "revoked",
      "outputs": [
        {
          "name": "",
          "type": "bool"
        }
      ],
      "payable": false,
      "stateMutability": "view",
      "type": "function"
    },
    {
      "constant": true,
      "inputs": [],
      "name": "FOUNDER_VESTING_CLIFF",
      "outputs": [
        {
          "name": "",
          "type": "uint256"
        }
      ],
      "payable": false,
      "stateMutability": "view",
      "type": "function"
    },
    {
      "inputs": [
        {
          "name": "_beneficiary",
          "type": "address"
        }
      ],
      "payable": false,
      "stateMutability": "nonpayable",
      "type": "constructor"
    },
    {
      "anonymous": false,
      "inputs": [
        {
          "indexed": false,
          "name": "amount",
          "type": "uint256"
        }
      ],
      "name": "Released",
      "type": "event"
    },
    {
      "anonymous": false,
      "inputs": [],
      "name": "Revoked",
      "type": "event"
    },
    {
      "anonymous": false,
      "inputs": [
        {
          "indexed": true,
          "name": "previousOwner",
          "type": "address"
        },
        {
          "indexed": true,
          "name": "newOwner",
          "type": "address"
        }
      ],
      "name": "OwnershipTransferred",
      "type": "event"
    }
  ],
  "bytecode": "0x6060604052341561000f57600080fd5b60405160208061108d8339810160405280805190602001909190505080635a725880620d2f006303b538006001336000806101000a81548173ffffffffffffffffffffffffffffffffffffffff021916908373ffffffffffffffffffffffffffffffffffffffff160217905550600073ffffffffffffffffffffffffffffffffffffffff168573ffffffffffffffffffffffffffffffffffffffff16141515156100b857600080fd5b8183111515156100c757600080fd5b84600160006101000a81548173ffffffffffffffffffffffffffffffffffffffff021916908373ffffffffffffffffffffffffffffffffffffffff16021790555080600560006101000a81548160ff02191690831515021790555081600481905550610149838561016164010000000002610d8c179091906401000000009004565b6002819055508360038190555050505050505061017f565b600080828401905083811015151561017557fe5b8091505092915050565b610eff8061018e6000396000f300606060405260043610610107576000357c0100000000000000000000000000000000000000000000000000000000900463ffffffff1680630fb5a6b41461010c57806313d033c0146101355780631726cbc81461015e57806319165587146101ab578063384711cc146101e457806338af3eed1461023157806359bbf62d1461028657806374a8f103146102af578063872a7810146102e85780638da5cb5b14610315578063906353791461036a5780639852595c1461039357806398f4cbf3146103e0578063be9a655514610409578063c153db4b14610432578063ca03a6c81461045b578063f2fde38b14610484578063fa01dc06146104bd578063fc8db11e1461050e575b600080fd5b341561011757600080fd5b61011f610537565b6040518082815260200191505060405180910390f35b341561014057600080fd5b61014861053d565b6040518082815260200191505060405180910390f35b341561016957600080fd5b610195600480803573ffffffffffffffffffffffffffffffffffffffff16906020019091905050610543565b6040518082815260200191505060405180910390f35b34156101b657600080fd5b6101e2600480803573ffffffffffffffffffffffffffffffffffffffff169060200190919050506105a6565b005b34156101ef57600080fd5b61021b600480803573ffffffffffffffffffffffffffffffffffffffff169060200190919050506106df565b6040518082815260200191505060405180910390f35b341561023c57600080fd5b6102446108cb565b604051808273ffffffffffffffffffffffffffffffffffffffff1673ffffffffffffffffffffffffffffffffffffffff16815260200191505060405180910390f35b341561029157600080fd5b6102996108f1565b6040518082815260200191505060405180910390f35b34156102ba57600080fd5b6102e6600480803573ffffffffffffffffffffffffffffffffffffffff169060200190919050506108f9565b005b34156102f357600080fd5b6102fb610b83565b604051808215151515815260200191505060405180910390f35b341561032057600080fd5b610328610b96565b604051808273ffffffffffffffffffffffffffffffffffffffff1673ffffffffffffffffffffffffffffffffffffffff16815260200191505060405180910390f35b341561037557600080fd5b61037d610bbb565b6040518082815260200191505060405180910390f35b341561039e57600080fd5b6103ca600480803573ffffffffffffffffffffffffffffffffffffffff16906020019091905050610bc3565b6040518082815260200191505060405180910390f35b34156103eb57600080fd5b6103f3610bdb565b6040518082815260200191505060405180910390f35b341561041457600080fd5b61041c610be3565b6040518082815260200191505060405180910390f35b341561043d57600080fd5b610445610be9565b6040518082815260200191505060405180910390f35b341561046657600080fd5b61046e610bf0565b6040518082815260200191505060405180910390f35b341561048f57600080fd5b6104bb600480803573ffffffffffffffffffffffffffffffffffffffff16906020019091905050610bf7565b005b34156104c857600080fd5b6104f4600480803573ffffffffffffffffffffffffffffffffffffffff16906020019091905050610d4c565b604051808215151515815260200191505060405180910390f35b341561051957600080fd5b610521610d6c565b6040518082815260200191505060405180910390f35b60045481565b60025481565b600061059f600660008473ffffffffffffffffffffffffffffffffffffffff1673ffffffffffffffffffffffffffffffffffffffff16815260200190815260200160002054610591846106df565b610d7390919063ffffffff16565b9050919050565b60006105b182610543565b90506000811115156105c257600080fd5b61061481600660008573ffffffffffffffffffffffffffffffffffffffff1673ffffffffffffffffffffffffffffffffffffffff16815260200190815260200160002054610d8c90919063ffffffff16565b600660008473ffffffffffffffffffffffffffffffffffffffff1673ffffffffffffffffffffffffffffffffffffffff168152602001908152602001600020819055506106a4600160009054906101000a900473ffffffffffffffffffffffffffffffffffffffff16828473ffffffffffffffffffffffffffffffffffffffff16610daa9092919063ffffffff16565b7ffb81f9b30d73d830c3544b34d827c08142579ee75710b490bab0b3995468c565816040518082815260200191505060405180910390a15050565b60008060008373ffffffffffffffffffffffffffffffffffffffff166370a08231306000604051602001526040518263ffffffff167c0100000000000000000000000000000000000000000000000000000000028152600401808273ffffffffffffffffffffffffffffffffffffffff1673ffffffffffffffffffffffffffffffffffffffff168152602001915050602060405180830381600087803b151561078757600080fd5b6102c65a03f1151561079857600080fd5b5050506040518051905091506107f6600660008673ffffffffffffffffffffffffffffffffffffffff1673ffffffffffffffffffffffffffffffffffffffff1681526020019081526020016000205483610d8c90919063ffffffff16565b905060025442101561080b57600092506108c4565b610822600454600354610d8c90919063ffffffff16565b421015806108795750600760008573ffffffffffffffffffffffffffffffffffffffff1673ffffffffffffffffffffffffffffffffffffffff16815260200190815260200160002060009054906101000a900460ff165b15610886578092506108c4565b6108c16004546108b36108a460035442610d7390919063ffffffff16565b84610e7d90919063ffffffff16565b610eb890919063ffffffff16565b92505b5050919050565b600160009054906101000a900473ffffffffffffffffffffffffffffffffffffffff1681565b635a72588081565b60008060008060009054906101000a900473ffffffffffffffffffffffffffffffffffffffff1673ffffffffffffffffffffffffffffffffffffffff163373ffffffffffffffffffffffffffffffffffffffff1614151561095957600080fd5b600560009054906101000a900460ff16151561097457600080fd5b600760008573ffffffffffffffffffffffffffffffffffffffff1673ffffffffffffffffffffffffffffffffffffffff16815260200190815260200160002060009054906101000a900460ff161515156109cd57600080fd5b8373ffffffffffffffffffffffffffffffffffffffff166370a08231306000604051602001526040518263ffffffff167c0100000000000000000000000000000000000000000000000000000000028152600401808273ffffffffffffffffffffffffffffffffffffffff1673ffffffffffffffffffffffffffffffffffffffff168152602001915050602060405180830381600087803b1515610a7057600080fd5b6102c65a03f11515610a8157600080fd5b505050604051805190509250610a9684610543565b9150610aab8284610d7390919063ffffffff16565b90506001600760008673ffffffffffffffffffffffffffffffffffffffff1673ffffffffffffffffffffffffffffffffffffffff16815260200190815260200160002060006101000a81548160ff021916908315150217905550610b516000809054906101000a900473ffffffffffffffffffffffffffffffffffffffff16828673ffffffffffffffffffffffffffffffffffffffff16610daa9092919063ffffffff16565b7f44825a4b2df8acb19ce4e1afba9aa850c8b65cdb7942e2078f27d0b0960efee660405160405180910390a150505050565b600560009054906101000a900460ff1681565b6000809054906101000a900473ffffffffffffffffffffffffffffffffffffffff1681565b635a72588081565b60066020528060005260406000206000915090505481565b6303b5380081565b60035481565b6206978081565b62ed4e0081565b6000809054906101000a900473ffffffffffffffffffffffffffffffffffffffff1673ffffffffffffffffffffffffffffffffffffffff163373ffffffffffffffffffffffffffffffffffffffff16141515610c5257600080fd5b600073ffffffffffffffffffffffffffffffffffffffff168173ffffffffffffffffffffffffffffffffffffffff1614151515610c8e57600080fd5b8073ffffffffffffffffffffffffffffffffffffffff166000809054906101000a900473ffffffffffffffffffffffffffffffffffffffff1673ffffffffffffffffffffffffffffffffffffffff167f8be0079c531659141344cd1fd0a4f28419497f9722a3daafe3b4186f6b6457e060405160405180910390a3806000806101000a81548173ffffffffffffffffffffffffffffffffffffffff021916908373ffffffffffffffffffffffffffffffffffffffff16021790555050565b60076020528060005260406000206000915054906101000a900460ff1681565b620d2f0081565b6000828211151515610d8157fe5b818303905092915050565b6000808284019050838110151515610da057fe5b8091505092915050565b8273ffffffffffffffffffffffffffffffffffffffff1663a9059cbb83836000604051602001526040518363ffffffff167c0100000000000000000000000000000000000000000000000000000000028152600401808373ffffffffffffffffffffffffffffffffffffffff1673ffffffffffffffffffffffffffffffffffffffff16815260200182815260200192505050602060405180830381600087803b1515610e5557600080fd5b6102c65a03f11515610e6657600080fd5b505050604051805190501515610e7857fe5b505050565b6000806000841415610e925760009150610eb1565b8284029050828482811515610ea357fe5b04141515610ead57fe5b8091505b5092915050565b6000808284811515610ec657fe5b04905080915050929150505600a165627a7a7230582008e91fe83fccc736bf15e719346e00c107f162dc3e5cb05f6e8601973ea9fbe90029",
  "source": "pragma solidity ^0.4.18;\r\n\r\nimport \"./TokenVesting.sol\";\r\nimport \"./DirectHomeVestingConfig.sol\";\r\n\r\ncontract PrivateSaleVesting is TokenVesting, DirectHomeVestingConfig {\r\n  function PrivateSaleVesting(address _beneficiary)\r\n    TokenVesting(_beneficiary, PRIVATESALE_VESTING_START, PRIVATESALE_VESTING_CLIFF,\r\n      PRIVATESALE_VESTING_DURATION, true) public {\r\n      }\r\n}\r\n\r\ncontract FounderVesting is TokenVesting, DirectHomeVestingConfig {\r\n  function FounderVesting(address _beneficiary)\r\n    TokenVesting(_beneficiary, FOUNDER_VESTING_START, FOUNDER_VESTING_CLIFF,\r\n      FOUNDER_VESTING_DURATION, true) public {\r\n      }\r\n}\r\n",
  "sourcePath": "/home/bennyliaw/DToken/contracts/DirectHomeVestingHelper.sol",
  "compiler": {
    "name": "solc",
    "version": "0.4.18+commit.9cf6e910.Emscripten.clang"
  },
  "schemaVersion": "1.0.1",
  "updatedAt": "2018-02-09T06:48:42.904Z"
}