{
  "contractName": "RefundVault",
  "abi": [
    {
      "constant": false,
      "inputs": [
        {
          "name": "_multisigVault",
          "type": "address"
        }
      ],
      "name": "setMultisigVault",
      "outputs": [],
      "payable": false,
      "stateMutability": "nonpayable",
      "type": "function"
    },
    {
      "constant": false,
      "inputs": [],
      "name": "close",
      "outputs": [],
      "payable": false,
      "stateMutability": "nonpayable",
      "type": "function"
    },
    {
      "constant": false,
      "inputs": [],
      "name": "enableRefunds",
      "outputs": [],
      "payable": false,
      "stateMutability": "nonpayable",
      "type": "function"
    },
    {
      "constant": true,
      "inputs": [],
      "name": "owner",
      "outputs": [
        {
          "name": "",
          "type": "address"
        }
      ],
      "payable": false,
      "stateMutability": "view",
      "type": "function"
    },
    {
      "constant": true,
      "inputs": [],
      "name": "state",
      "outputs": [
        {
          "name": "",
          "type": "uint8"
        }
      ],
      "payable": false,
      "stateMutability": "view",
      "type": "function"
    },
    {
      "constant": true,
      "inputs": [
        {
          "name": "",
          "type": "address"
        }
      ],
      "name": "deposited",
      "outputs": [
        {
          "name": "",
          "type": "uint256"
        }
      ],
      "payable": false,
      "stateMutability": "view",
      "type": "function"
    },
    {
      "constant": true,
      "inputs": [],
      "name": "multisigVault",
      "outputs": [
        {
          "name": "",
          "type": "address"
        }
      ],
      "payable": false,
      "stateMutability": "view",
      "type": "function"
    },
    {
      "constant": false,
      "inputs": [
        {
          "name": "newOwner",
          "type": "address"
        }
      ],
      "name": "transferOwnership",
      "outputs": [],
      "payable": false,
      "stateMutability": "nonpayable",
      "type": "function"
    },
    {
      "constant": false,
      "inputs": [
        {
          "name": "investor",
          "type": "address"
        }
      ],
      "name": "deposit",
      "outputs": [],
      "payable": true,
      "stateMutability": "payable",
      "type": "function"
    },
    {
      "constant": false,
      "inputs": [
        {
          "name": "investor",
          "type": "address"
        }
      ],
      "name": "refund",
      "outputs": [],
      "payable": false,
      "stateMutability": "nonpayable",
      "type": "function"
    },
    {
      "inputs": [],
      "payable": false,
      "stateMutability": "nonpayable",
      "type": "constructor"
    },
    {
      "anonymous": false,
      "inputs": [],
      "name": "Closed",
      "type": "event"
    },
    {
      "anonymous": false,
      "inputs": [],
      "name": "RefundsEnabled",
      "type": "event"
    },
    {
      "anonymous": false,
      "inputs": [
        {
          "indexed": true,
          "name": "beneficiary",
          "type": "address"
        },
        {
          "indexed": false,
          "name": "weiAmount",
          "type": "uint256"
        }
      ],
      "name": "Refunded",
      "type": "event"
    },
    {
      "anonymous": false,
      "inputs": [
        {
          "indexed": true,
          "name": "previousOwner",
          "type": "address"
        },
        {
          "indexed": true,
          "name": "newOwner",
          "type": "address"
        }
      ],
      "name": "OwnershipTransferred",
      "type": "event"
    }
  ],
  "bytecode": "0x6060604052341561000f57600080fd5b336000806101000a81548173ffffffffffffffffffffffffffffffffffffffff021916908373ffffffffffffffffffffffffffffffffffffffff1602179055506000600260146101000a81548160ff0219169083600281111561006e57fe5b0217905550610a75806100826000396000f3006060604052600436106100a4576000357c0100000000000000000000000000000000000000000000000000000000900463ffffffff16806314f80083146100a957806343d726d6146100e25780638c52dc41146100f75780638da5cb5b1461010c578063c19d93fb14610161578063cb13cddb14610198578063d0c03f35146101e5578063f2fde38b1461023a578063f340fa0114610273578063fa89401a146102a1575b600080fd5b34156100b457600080fd5b6100e0600480803573ffffffffffffffffffffffffffffffffffffffff169060200190919050506102da565b005b34156100ed57600080fd5b6100f56103b0565b005b341561010257600080fd5b61010a610509565b005b341561011757600080fd5b61011f6105ea565b604051808273ffffffffffffffffffffffffffffffffffffffff1673ffffffffffffffffffffffffffffffffffffffff16815260200191505060405180910390f35b341561016c57600080fd5b61017461060f565b6040518082600281111561018457fe5b60ff16815260200191505060405180910390f35b34156101a357600080fd5b6101cf600480803573ffffffffffffffffffffffffffffffffffffffff16906020019091905050610622565b6040518082815260200191505060405180910390f35b34156101f057600080fd5b6101f861063a565b604051808273ffffffffffffffffffffffffffffffffffffffff1673ffffffffffffffffffffffffffffffffffffffff16815260200191505060405180910390f35b341561024557600080fd5b610271600480803573ffffffffffffffffffffffffffffffffffffffff16906020019091905050610660565b005b61029f600480803573ffffffffffffffffffffffffffffffffffffffff169060200190919050506107b5565b005b34156102ac57600080fd5b6102d8600480803573ffffffffffffffffffffffffffffffffffffffff169060200190919050506108dc565b005b6000809054906101000a900473ffffffffffffffffffffffffffffffffffffffff1673ffffffffffffffffffffffffffffffffffffffff163373ffffffffffffffffffffffffffffffffffffffff1614151561033557600080fd5b600073ffffffffffffffffffffffffffffffffffffffff168173ffffffffffffffffffffffffffffffffffffffff161415156103ad5780600260006101000a81548173ffffffffffffffffffffffffffffffffffffffff021916908373ffffffffffffffffffffffffffffffffffffffff1602179055505b50565b6000809054906101000a900473ffffffffffffffffffffffffffffffffffffffff1673ffffffffffffffffffffffffffffffffffffffff163373ffffffffffffffffffffffffffffffffffffffff1614151561040b57600080fd5b6000600281111561041857fe5b600260149054906101000a900460ff16600281111561043357fe5b14151561043f57600080fd5b60028060146101000a81548160ff0219169083600281111561045d57fe5b02179055507f1cdde67b72a90f19919ac732a437ac2f7a10fc128d28c2a6e525d89ce5cd9d3a60405160405180910390a1600260009054906101000a900473ffffffffffffffffffffffffffffffffffffffff1673ffffffffffffffffffffffffffffffffffffffff166108fc3073ffffffffffffffffffffffffffffffffffffffff16319081150290604051600060405180830381858888f19350505050151561050757600080fd5b565b6000809054906101000a900473ffffffffffffffffffffffffffffffffffffffff1673ffffffffffffffffffffffffffffffffffffffff163373ffffffffffffffffffffffffffffffffffffffff1614151561056457600080fd5b6000600281111561057157fe5b600260149054906101000a900460ff16600281111561058c57fe5b14151561059857600080fd5b6001600260146101000a81548160ff021916908360028111156105b757fe5b02179055507f599d8e5a83cffb867d051598c4d70e805d59802d8081c1c7d6dffc5b6aca2b8960405160405180910390a1565b6000809054906101000a900473ffffffffffffffffffffffffffffffffffffffff1681565b600260149054906101000a900460ff1681565b60016020528060005260406000206000915090505481565b600260009054906101000a900473ffffffffffffffffffffffffffffffffffffffff1681565b6000809054906101000a900473ffffffffffffffffffffffffffffffffffffffff1673ffffffffffffffffffffffffffffffffffffffff163373ffffffffffffffffffffffffffffffffffffffff161415156106bb57600080fd5b600073ffffffffffffffffffffffffffffffffffffffff168173ffffffffffffffffffffffffffffffffffffffff16141515156106f757600080fd5b8073ffffffffffffffffffffffffffffffffffffffff166000809054906101000a900473ffffffffffffffffffffffffffffffffffffffff1673ffffffffffffffffffffffffffffffffffffffff167f8be0079c531659141344cd1fd0a4f28419497f9722a3daafe3b4186f6b6457e060405160405180910390a3806000806101000a81548173ffffffffffffffffffffffffffffffffffffffff021916908373ffffffffffffffffffffffffffffffffffffffff16021790555050565b6000809054906101000a900473ffffffffffffffffffffffffffffffffffffffff1673ffffffffffffffffffffffffffffffffffffffff163373ffffffffffffffffffffffffffffffffffffffff1614151561081057600080fd5b6000600281111561081d57fe5b600260149054906101000a900460ff16600281111561083857fe5b14151561084457600080fd5b61089634600160008473ffffffffffffffffffffffffffffffffffffffff1673ffffffffffffffffffffffffffffffffffffffff16815260200190815260200160002054610a2b90919063ffffffff16565b600160008373ffffffffffffffffffffffffffffffffffffffff1673ffffffffffffffffffffffffffffffffffffffff1681526020019081526020016000208190555050565b6000600160028111156108eb57fe5b600260149054906101000a900460ff16600281111561090657fe5b14151561091257600080fd5b600160008373ffffffffffffffffffffffffffffffffffffffff1673ffffffffffffffffffffffffffffffffffffffff1681526020019081526020016000205490506000600160008473ffffffffffffffffffffffffffffffffffffffff1673ffffffffffffffffffffffffffffffffffffffff168152602001908152602001600020819055508173ffffffffffffffffffffffffffffffffffffffff166108fc829081150290604051600060405180830381858888f1935050505015156109d957600080fd5b8173ffffffffffffffffffffffffffffffffffffffff167fd7dee2702d63ad89917b6a4da9981c90c4d24f8c2bdfd64c604ecae57d8d0651826040518082815260200191505060405180910390a25050565b6000808284019050838110151515610a3f57fe5b80915050929150505600a165627a7a723058205a313f1a50ecc9a3ac760ec14e05d352269c2c0f47a028159a617abc88d3ddc10029",
  "source": "pragma solidity ^0.4.18;\r\n\r\n// rename wallet to multisigVault\r\n// made constructor takes no arguments and added setMultisigVault function\r\n\r\nimport './SafeMath.sol';\r\nimport './Ownable.sol';\r\n\r\n/**\r\n * @title RefundVault\r\n * @dev This contract is used for storing funds while a crowdsale\r\n * is in progress. Supports refunding the money if crowdsale fails,\r\n * and forwarding it if crowdsale is successful.\r\n */\r\ncontract RefundVault is Ownable {\r\n  using SafeMath for uint256;\r\n\r\n  enum State { Active, Refunding, Closed }\r\n\r\n  mapping (address => uint256) public deposited;\r\n  address public multisigVault;\r\n  State public state;\r\n\r\n  event Closed();\r\n  event RefundsEnabled();\r\n  event Refunded(address indexed beneficiary, uint256 weiAmount);\r\n\r\n  function RefundVault() public {\r\n    state = State.Active;\r\n  }\r\n\r\n  function deposit(address investor) onlyOwner public payable {\r\n    require(state == State.Active);\r\n    deposited[investor] = deposited[investor].add(msg.value);\r\n  }\r\n\r\n  function close() onlyOwner public {\r\n    require(state == State.Active);\r\n    state = State.Closed;\r\n    Closed();\r\n    multisigVault.transfer(this.balance);\r\n  }\r\n\r\n  function setMultisigVault(address _multisigVault) public onlyOwner {\r\n    if (_multisigVault != address(0)) {\r\n      multisigVault = _multisigVault;\r\n    }\r\n  }\r\n\r\n  function enableRefunds() onlyOwner public {\r\n    require(state == State.Active);\r\n    state = State.Refunding;\r\n    RefundsEnabled();\r\n  }\r\n\r\n  function refund(address investor) public {\r\n    require(state == State.Refunding);\r\n    uint256 depositedValue = deposited[investor];\r\n    deposited[investor] = 0;\r\n    investor.transfer(depositedValue);\r\n    Refunded(investor, depositedValue);\r\n  }\r\n}\r\n",
  "sourcePath": "/home/bennyliaw/DToken/contracts/RefundVault.sol",
  "compiler": {
    "name": "solc",
    "version": "0.4.18+commit.9cf6e910.Emscripten.clang"
  },
  "schemaVersion": "1.0.1",
  "updatedAt": "2018-02-09T06:48:42.907Z"
}