{
  "contractName": "VestingProfile",
  "abi": [
    {
      "constant": false,
      "inputs": [
        {
          "name": "_to",
          "type": "address"
        },
        {
          "name": "_value",
          "type": "uint256"
        },
        {
          "name": "_start",
          "type": "uint64"
        },
        {
          "name": "_cliff",
          "type": "uint64"
        },
        {
          "name": "_vesting",
          "type": "uint64"
        },
        {
          "name": "_override",
          "type": "bool"
        }
      ],
      "name": "setVestingGrant",
      "outputs": [],
      "payable": false,
      "stateMutability": "nonpayable",
      "type": "function"
    },
    {
      "constant": true,
      "inputs": [
        {
          "name": "",
          "type": "address"
        }
      ],
      "name": "grants",
      "outputs": [
        {
          "name": "value",
          "type": "uint256"
        },
        {
          "name": "cliff",
          "type": "uint64"
        },
        {
          "name": "vesting",
          "type": "uint64"
        },
        {
          "name": "start",
          "type": "uint64"
        }
      ],
      "payable": false,
      "stateMutability": "view",
      "type": "function"
    },
    {
      "constant": true,
      "inputs": [
        {
          "name": "_to",
          "type": "address"
        },
        {
          "name": "_time",
          "type": "uint256"
        }
      ],
      "name": "getLockedAmountOf",
      "outputs": [
        {
          "name": "",
          "type": "uint256"
        }
      ],
      "payable": false,
      "stateMutability": "view",
      "type": "function"
    },
    {
      "constant": true,
      "inputs": [
        {
          "name": "_to",
          "type": "address"
        }
      ],
      "name": "getVestingGrantValue",
      "outputs": [
        {
          "name": "",
          "type": "uint256"
        }
      ],
      "payable": false,
      "stateMutability": "view",
      "type": "function"
    },
    {
      "anonymous": false,
      "inputs": [
        {
          "indexed": true,
          "name": "to",
          "type": "address"
        },
        {
          "indexed": false,
          "name": "value",
          "type": "uint256"
        },
        {
          "indexed": false,
          "name": "vesting",
          "type": "uint64"
        }
      ],
      "name": "VestingGrantSet",
      "type": "event"
    }
  ],
  "bytecode": "0x6060604052341561000f57600080fd5b6107538061001e6000396000f300606060405260043610610062576000357c0100000000000000000000000000000000000000000000000000000000900463ffffffff1680636c1f644b14610067578063b869cea3146100ed578063d278a9911461018b578063f4d6ce04146101e1575b600080fd5b341561007257600080fd5b6100eb600480803573ffffffffffffffffffffffffffffffffffffffff1690602001909190803590602001909190803567ffffffffffffffff1690602001909190803567ffffffffffffffff1690602001909190803567ffffffffffffffff16906020019091908035151590602001909190505061022e565b005b34156100f857600080fd5b610124600480803573ffffffffffffffffffffffffffffffffffffffff16906020019091905050610453565b604051808581526020018467ffffffffffffffff1667ffffffffffffffff1681526020018367ffffffffffffffff1667ffffffffffffffff1681526020018267ffffffffffffffff1667ffffffffffffffff16815260200194505050505060405180910390f35b341561019657600080fd5b6101cb600480803573ffffffffffffffffffffffffffffffffffffffff169060200190919080359060200190919050506104bf565b6040518082815260200191505060405180910390f35b34156101ec57600080fd5b610218600480803573ffffffffffffffffffffffffffffffffffffffff16906020019091905050610599565b6040518082815260200191505060405180910390f35b8367ffffffffffffffff168367ffffffffffffffff161015801561026657508267ffffffffffffffff168267ffffffffffffffff1610155b151561027157600080fd5b60008060008873ffffffffffffffffffffffffffffffffffffffff1673ffffffffffffffffffffffffffffffffffffffff1681526020019081526020016000206000015414806102be5750805b15156102c957600080fd5b6080604051908101604052808681526020018467ffffffffffffffff1681526020018367ffffffffffffffff1681526020018567ffffffffffffffff168152506000808873ffffffffffffffffffffffffffffffffffffffff1673ffffffffffffffffffffffffffffffffffffffff1681526020019081526020016000206000820151816000015560208201518160010160006101000a81548167ffffffffffffffff021916908367ffffffffffffffff16021790555060408201518160010160086101000a81548167ffffffffffffffff021916908367ffffffffffffffff16021790555060608201518160010160106101000a81548167ffffffffffffffff021916908367ffffffffffffffff1602179055509050508573ffffffffffffffffffffffffffffffffffffffff167fedfe290f98c3da9417aaf8cdb064f7060bd844466cb09dfadcd638efab0aab878684604051808381526020018267ffffffffffffffff1667ffffffffffffffff1681526020019250505060405180910390a2505050505050565b60006020528060005260406000206000915090508060000154908060010160009054906101000a900467ffffffffffffffff16908060010160089054906101000a900467ffffffffffffffff16908060010160109054906101000a900467ffffffffffffffff16905084565b6000806000808573ffffffffffffffffffffffffffffffffffffffff1673ffffffffffffffffffffffffffffffffffffffff16815260200190815260200160002090506000816000015414156105185760009150610592565b61058f8160000154848360010160109054906101000a900467ffffffffffffffff1667ffffffffffffffff168460010160009054906101000a900467ffffffffffffffff1667ffffffffffffffff168560010160089054906101000a900467ffffffffffffffff1667ffffffffffffffff166105e4565b91505b5092915050565b60008060008373ffffffffffffffffffffffffffffffffffffffff1673ffffffffffffffffffffffffffffffffffffffff168152602001908152602001600020600001549050919050565b60006106056105f68787878787610610565b876106b890919063ffffffff16565b905095945050505050565b6000808386101561062457600091506106ae565b8286101515610635578691506106ae565b6106a861066062278d0061065288876106b890919063ffffffff16565b6106d190919063ffffffff16565b61069a61068b62278d0061067d8a8c6106b890919063ffffffff16565b6106d190919063ffffffff16565b8a6106ec90919063ffffffff16565b6106d190919063ffffffff16565b90508091505b5095945050505050565b60008282111515156106c657fe5b818303905092915050565b60008082848115156106df57fe5b0490508091505092915050565b60008060008414156107015760009150610720565b828402905082848281151561071257fe5b0414151561071c57fe5b8091505b50929150505600a165627a7a7230582091d792a198a1aa789287945cd21eafc6e2b96f95987dc0afc43057722e20304f0029",
  "source": "pragma solidity ^0.4.18;\n\nimport \"./SafeMath.sol\";\n\n/**\n * @title Standalone Vesting Profile logic to be added in token\n * @dev Beneficiary can have at most one VestingGrant only, we do not support adding two vesting grants of vesting grant to same address.\n *      Token transfer related logic is not handled in this class for simplicity and modularity purpose\n */\ncontract VestingProfile {\n  using SafeMath for uint256;\n\n  struct VestingGrant {\n    uint256 value;       // 32 bytes\n    uint64 cliff;\n    uint64 vesting;\n    uint64 start;        // 3 * 8 = 24 bytes\n  } // total 56 bytes = 2 sstore per operation (32 per sstore)\n\n  mapping (address => VestingGrant) public grants;\n\n  event VestingGrantSet(address indexed to, uint256 value, uint64 vesting);\n\n  function getVestingGrantValue(address _to) public view returns (uint256) {\n    return grants[_to].value;\n  }\n\n  /**\n   * @dev Set vesting grant to a specified address\n   * @param _to address The address which the vesting amount will be granted to.\n   * @param _value uint256 The amount to be granted.\n   * @param _start uint64 Time of the beginning of the grant.\n   * @param _cliff uint64 Time of the cliff period.\n   * @param _vesting uint64 The vesting period.\n   * @param _override bool Must be true if you are overriding vesting grant that has been set before\n   *          this is to prevent accidental overwriting vesting grant\n   */\n  function setVestingGrant(address _to, uint256 _value, uint64 _start, uint64 _cliff, uint64 _vesting, bool _override) public {\n\n    // Check for date inconsistencies that may cause unexpected behavior\n    require(_cliff >= _start && _vesting >= _cliff);\n    require(grants[_to].value == 0 || _override);\n    grants[_to] = VestingGrant(_value, _cliff, _vesting, _start);\n\n    VestingGrantSet(_to, _value, _vesting);\n  }\n\n  /**\n   * @dev Calculate amount of vested amounts at a specific time (monthly graded)\n   * @param amounts uint256 The amount of amounts granted\n   * @param time uint64 The time to be checked\n   * @param start uint64 The time representing the beginning of the grant\n   * @param cliff uint64  The cliff period, the period before nothing can be paid out\n   * @param vesting uint64 The vesting period\n   * @return An uint256 representing the vested amounts\n   *   |                         _/--------   vestedTokens rect\n   *   |                       _/\n   *   |                     _/\n   *   |                   _/\n   *   |                 _/\n   *   |                /\n   *   |              .|\n   *   |            .  |\n   *   |          .    |\n   *   |        .      |\n   *   |      .        |\n   *   |    .          |\n   *   +===+===========+---------+----------> time\n   *      Start       Cliff    Vesting\n   */\n  function calculateVested (\n    uint256 amounts,\n    uint256 time,\n    uint256 start,\n    uint256 cliff,\n    uint256 vesting) internal pure returns (uint256)\n    {\n      // Shortcuts for before cliff and after vesting cases.\n      if (time < cliff) return 0;\n      if (time >= vesting) return amounts;\n\n      // Interpolate all vested amounts.\n      // As before cliff the shortcut returns 0, we can use just calculate a value\n      // in the vesting rect (as shown in above's figure)\n\n      // vestedAmounts = (amounts * (time - start)) / (vesting - start)\n      // vestedAmounts = (amounts * ( (time - start) / (30 days) ) / ( (vesting - start) / (30 days) )\n      /*\n      uint256 vestedAmounts = SafeMath.div(\n                                    SafeMath.mul(\n                                      amounts,\n                                      SafeMath.div(SafeMath.sub(time, start), 30 days)\n                                      ),\n                                    SafeMath.div(SafeMath.sub(vesting, start), 30 days)\n                                    ); */\n      uint256 vestedAmounts = amounts.mul(time.sub(start).div(30 days)).div(vesting.sub(start).div(30 days));\n\n      // if (vestedAmounts > amounts) return amounts; // there is possible case where this is true\n\n      return vestedAmounts;\n  }\n\n  function calculateLocked (\n    uint256 amounts,\n    uint256 time,\n    uint256 start,\n    uint256 cliff,\n    uint256 vesting) internal pure returns (uint256)\n    {\n      return amounts.sub(calculateVested(amounts, time, start, cliff, vesting));\n    }\n\n  /**\n   * @dev Gets the locked amount of a given beneficiary, ie. non vested amount, at a specific time.\n   * @param _to The beneficiary to be checked.\n   * @param _time uint64 The time to be checked\n   * @return An uint256 representing the non vested amounts of a specific grant on the\n   * passed time frame.\n   */\n  function getLockedAmountOf(address _to, uint256 _time) public view returns (uint256) {\n    VestingGrant storage grant = grants[_to];\n    if (grant.value == 0) return 0;\n    return calculateLocked(grant.value, uint256(_time), uint256(grant.start),\n      uint256(grant.cliff), uint256(grant.vesting));\n  }\n\n\n}\n",
  "sourcePath": "/mnt/c/Shared/DToken/contracts/VestingProfile.sol",
  "compiler": {
    "name": "solc",
    "version": "0.4.18+commit.9cf6e910.Emscripten.clang"
  },
  "schemaVersion": "1.0.1",
  "updatedAt": "2018-02-14T06:09:52.132Z"
}